{
  "_format": "hh3-artifact-1",
  "contractName": "AweBondingCurvePool",
  "sourceName": "contracts/AweBondingCurvePool.sol",
  "abi": [
    {
      "inputs": [],
      "stateMutability": "nonpayable",
      "type": "constructor"
    },
    {
      "inputs": [],
      "name": "AccessControlBadConfirmation",
      "type": "error"
    },
    {
      "inputs": [
        {
          "internalType": "address",
          "name": "account",
          "type": "address"
        },
        {
          "internalType": "bytes32",
          "name": "neededRole",
          "type": "bytes32"
        }
      ],
      "name": "AccessControlUnauthorizedAccount",
      "type": "error"
    },
    {
      "inputs": [
        {
          "internalType": "uint256",
          "name": "blockTimestamp",
          "type": "uint256"
        },
        {
          "internalType": "uint256",
          "name": "graduatedAt",
          "type": "uint256"
        }
      ],
      "name": "CreatorClaimTooEarly",
      "type": "error"
    },
    {
      "inputs": [],
      "name": "CreatorClaimed",
      "type": "error"
    },
    {
      "inputs": [],
      "name": "Graduated",
      "type": "error"
    },
    {
      "inputs": [
        {
          "internalType": "uint256",
          "name": "amount",
          "type": "uint256"
        }
      ],
      "name": "InsufficientAweBalance",
      "type": "error"
    },
    {
      "inputs": [
        {
          "internalType": "uint256",
          "name": "amount",
          "type": "uint256"
        }
      ],
      "name": "InsufficientTokenBalance",
      "type": "error"
    },
    {
      "inputs": [],
      "name": "InvalidInitialization",
      "type": "error"
    },
    {
      "inputs": [],
      "name": "NotGraduated",
      "type": "error"
    },
    {
      "inputs": [],
      "name": "NotInitializing",
      "type": "error"
    },
    {
      "inputs": [
        {
          "internalType": "address",
          "name": "token",
          "type": "address"
        }
      ],
      "name": "SafeERC20FailedOperation",
      "type": "error"
    },
    {
      "inputs": [
        {
          "internalType": "uint256",
          "name": "actual",
          "type": "uint256"
        },
        {
          "internalType": "uint256",
          "name": "limit",
          "type": "uint256"
        }
      ],
      "name": "SlippageToleranceExceeded",
      "type": "error"
    },
    {
      "anonymous": false,
      "inputs": [
        {
          "indexed": false,
          "internalType": "uint64",
          "name": "version",
          "type": "uint64"
        }
      ],
      "name": "Initialized",
      "type": "event"
    },
    {
      "anonymous": false,
      "inputs": [
        {
          "indexed": true,
          "internalType": "bytes32",
          "name": "role",
          "type": "bytes32"
        },
        {
          "indexed": true,
          "internalType": "bytes32",
          "name": "previousAdminRole",
          "type": "bytes32"
        },
        {
          "indexed": true,
          "internalType": "bytes32",
          "name": "newAdminRole",
          "type": "bytes32"
        }
      ],
      "name": "RoleAdminChanged",
      "type": "event"
    },
    {
      "anonymous": false,
      "inputs": [
        {
          "indexed": true,
          "internalType": "bytes32",
          "name": "role",
          "type": "bytes32"
        },
        {
          "indexed": true,
          "internalType": "address",
          "name": "account",
          "type": "address"
        },
        {
          "indexed": true,
          "internalType": "address",
          "name": "sender",
          "type": "address"
        }
      ],
      "name": "RoleGranted",
      "type": "event"
    },
    {
      "anonymous": false,
      "inputs": [
        {
          "indexed": true,
          "internalType": "bytes32",
          "name": "role",
          "type": "bytes32"
        },
        {
          "indexed": true,
          "internalType": "address",
          "name": "account",
          "type": "address"
        },
        {
          "indexed": true,
          "internalType": "address",
          "name": "sender",
          "type": "address"
        }
      ],
      "name": "RoleRevoked",
      "type": "event"
    },
    {
      "inputs": [],
      "name": "CREATOR_ROLE",
      "outputs": [
        {
          "internalType": "bytes32",
          "name": "",
          "type": "bytes32"
        }
      ],
      "stateMutability": "view",
      "type": "function"
    },
    {
      "inputs": [],
      "name": "DEFAULT_ADMIN_ROLE",
      "outputs": [
        {
          "internalType": "bytes32",
          "name": "",
          "type": "bytes32"
        }
      ],
      "stateMutability": "view",
      "type": "function"
    },
    {
      "inputs": [],
      "name": "DEX_TICK_SPACING",
      "outputs": [
        {
          "internalType": "int24",
          "name": "",
          "type": "int24"
        }
      ],
      "stateMutability": "view",
      "type": "function"
    },
    {
      "inputs": [],
      "name": "agentId",
      "outputs": [
        {
          "internalType": "string",
          "name": "",
          "type": "string"
        }
      ],
      "stateMutability": "view",
      "type": "function"
    },
    {
      "inputs": [],
      "name": "am",
      "outputs": [
        {
          "internalType": "contract IAddressManager",
          "name": "",
          "type": "address"
        }
      ],
      "stateMutability": "view",
      "type": "function"
    },
    {
      "inputs": [],
      "name": "aweReserve",
      "outputs": [
        {
          "internalType": "uint256",
          "name": "",
          "type": "uint256"
        }
      ],
      "stateMutability": "view",
      "type": "function"
    },
    {
      "inputs": [
        {
          "internalType": "uint256",
          "name": "aweIn",
          "type": "uint256"
        },
        {
          "internalType": "uint256",
          "name": "tokenOutMin",
          "type": "uint256"
        }
      ],
      "name": "buy_exact_in",
      "outputs": [],
      "stateMutability": "nonpayable",
      "type": "function"
    },
    {
      "inputs": [
        {
          "internalType": "uint256",
          "name": "tokenOut",
          "type": "uint256"
        },
        {
          "internalType": "uint256",
          "name": "aweInMax",
          "type": "uint256"
        }
      ],
      "name": "buy_exact_out",
      "outputs": [],
      "stateMutability": "nonpayable",
      "type": "function"
    },
    {
      "inputs": [],
      "name": "claimCreatorReward",
      "outputs": [],
      "stateMutability": "nonpayable",
      "type": "function"
    },
    {
      "inputs": [],
      "name": "claimDexFees",
      "outputs": [],
      "stateMutability": "nonpayable",
      "type": "function"
    },
    {
      "inputs": [],
      "name": "creator",
      "outputs": [
        {
          "internalType": "address",
          "name": "",
          "type": "address"
        }
      ],
      "stateMutability": "view",
      "type": "function"
    },
    {
      "inputs": [],
      "name": "creatorClaimed",
      "outputs": [
        {
          "internalType": "bool",
          "name": "",
          "type": "bool"
        }
      ],
      "stateMutability": "view",
      "type": "function"
    },
    {
      "inputs": [],
      "name": "dexNftId",
      "outputs": [
        {
          "internalType": "uint256",
          "name": "",
          "type": "uint256"
        }
      ],
      "stateMutability": "view",
      "type": "function"
    },
    {
      "inputs": [],
      "name": "dexPool",
      "outputs": [
        {
          "internalType": "address",
          "name": "",
          "type": "address"
        }
      ],
      "stateMutability": "view",
      "type": "function"
    },
    {
      "inputs": [
        {
          "internalType": "uint256",
          "name": "amountOut",
          "type": "uint256"
        },
        {
          "internalType": "bool",
          "name": "swapToAwe",
          "type": "bool"
        }
      ],
      "name": "getAmountIn",
      "outputs": [
        {
          "internalType": "uint256",
          "name": "",
          "type": "uint256"
        }
      ],
      "stateMutability": "view",
      "type": "function"
    },
    {
      "inputs": [
        {
          "internalType": "uint256",
          "name": "amountIn",
          "type": "uint256"
        },
        {
          "internalType": "bool",
          "name": "swapToAwe",
          "type": "bool"
        }
      ],
      "name": "getAmountOut",
      "outputs": [
        {
          "internalType": "uint256",
          "name": "",
          "type": "uint256"
        }
      ],
      "stateMutability": "view",
      "type": "function"
    },
    {
      "inputs": [],
      "name": "getRemainingTokenForSale",
      "outputs": [
        {
          "internalType": "uint256",
          "name": "",
          "type": "uint256"
        }
      ],
      "stateMutability": "view",
      "type": "function"
    },
    {
      "inputs": [
        {
          "internalType": "bytes32",
          "name": "role",
          "type": "bytes32"
        }
      ],
      "name": "getRoleAdmin",
      "outputs": [
        {
          "internalType": "bytes32",
          "name": "",
          "type": "bytes32"
        }
      ],
      "stateMutability": "view",
      "type": "function"
    },
    {
      "inputs": [
        {
          "internalType": "address",
          "name": "",
          "type": "address"
        }
      ],
      "name": "getUserVestingAmount",
      "outputs": [
        {
          "internalType": "uint256",
          "name": "",
          "type": "uint256"
        }
      ],
      "stateMutability": "view",
      "type": "function"
    },
    {
      "inputs": [],
      "name": "graduatedAt",
      "outputs": [
        {
          "internalType": "uint256",
          "name": "",
          "type": "uint256"
        }
      ],
      "stateMutability": "view",
      "type": "function"
    },
    {
      "inputs": [
        {
          "internalType": "bytes32",
          "name": "role",
          "type": "bytes32"
        },
        {
          "internalType": "address",
          "name": "account",
          "type": "address"
        }
      ],
      "name": "grantRole",
      "outputs": [],
      "stateMutability": "nonpayable",
      "type": "function"
    },
    {
      "inputs": [
        {
          "internalType": "bytes32",
          "name": "role",
          "type": "bytes32"
        },
        {
          "internalType": "address",
          "name": "account",
          "type": "address"
        }
      ],
      "name": "hasRole",
      "outputs": [
        {
          "internalType": "bool",
          "name": "",
          "type": "bool"
        }
      ],
      "stateMutability": "view",
      "type": "function"
    },
    {
      "inputs": [
        {
          "internalType": "address",
          "name": "creator_",
          "type": "address"
        },
        {
          "internalType": "contract IAddressManager",
          "name": "addressManager_",
          "type": "address"
        },
        {
          "internalType": "address",
          "name": "token_",
          "type": "address"
        },
        {
          "internalType": "string",
          "name": "agentId_",
          "type": "string"
        }
      ],
      "name": "initialize",
      "outputs": [],
      "stateMutability": "nonpayable",
      "type": "function"
    },
    {
      "inputs": [],
      "name": "isGraduated",
      "outputs": [
        {
          "internalType": "bool",
          "name": "",
          "type": "bool"
        }
      ],
      "stateMutability": "view",
      "type": "function"
    },
    {
      "inputs": [
        {
          "internalType": "bytes32",
          "name": "role",
          "type": "bytes32"
        },
        {
          "internalType": "address",
          "name": "callerConfirmation",
          "type": "address"
        }
      ],
      "name": "renounceRole",
      "outputs": [],
      "stateMutability": "nonpayable",
      "type": "function"
    },
    {
      "inputs": [
        {
          "internalType": "bytes32",
          "name": "role",
          "type": "bytes32"
        },
        {
          "internalType": "address",
          "name": "account",
          "type": "address"
        }
      ],
      "name": "revokeRole",
      "outputs": [],
      "stateMutability": "nonpayable",
      "type": "function"
    },
    {
      "inputs": [
        {
          "internalType": "uint256",
          "name": "tokenIn",
          "type": "uint256"
        },
        {
          "internalType": "uint256",
          "name": "aweOutMin",
          "type": "uint256"
        }
      ],
      "name": "sell_exact_in",
      "outputs": [],
      "stateMutability": "nonpayable",
      "type": "function"
    },
    {
      "inputs": [
        {
          "internalType": "uint256",
          "name": "aweOut",
          "type": "uint256"
        },
        {
          "internalType": "uint256",
          "name": "tokenInMax",
          "type": "uint256"
        }
      ],
      "name": "sell_exact_out",
      "outputs": [],
      "stateMutability": "nonpayable",
      "type": "function"
    },
    {
      "inputs": [
        {
          "internalType": "bytes4",
          "name": "interfaceId",
          "type": "bytes4"
        }
      ],
      "name": "supportsInterface",
      "outputs": [
        {
          "internalType": "bool",
          "name": "",
          "type": "bool"
        }
      ],
      "stateMutability": "view",
      "type": "function"
    },
    {
      "inputs": [],
      "name": "token",
      "outputs": [
        {
          "internalType": "contract IERC20",
          "name": "",
          "type": "address"
        }
      ],
      "stateMutability": "view",
      "type": "function"
    },
    {
      "inputs": [],
      "name": "tokenReserve",
      "outputs": [
        {
          "internalType": "uint256",
          "name": "",
          "type": "uint256"
        }
      ],
      "stateMutability": "view",
      "type": "function"
    },
    {
      "inputs": [],
      "name": "virtualAweReserve",
      "outputs": [
        {
          "internalType": "uint256",
          "name": "",
          "type": "uint256"
        }
      ],
      "stateMutability": "view",
      "type": "function"
    },
    {
      "inputs": [],
      "name": "virtualTokenReserve",
      "outputs": [
        {
          "internalType": "uint256",
          "name": "",
          "type": "uint256"
        }
      ],
      "stateMutability": "view",
      "type": "function"
    }
  ],
  "bytecode": "0x6080604052348015600e575f5ffd5b5060156019565b60c9565b7ff0c57e16840df040f15088dc2f81fe391c3923bec73e23a9662efc9c229c6a00805468010000000000000000900460ff161560685760405163f92ee8a960e01b815260040160405180910390fd5b80546001600160401b039081161460c65780546001600160401b0319166001600160401b0390811782556040519081527fc7f505b2f371ae2175ee4913f4499e1f2633a7b5936321eed1cdaeb6115181d29060200160405180910390a15b50565b6131d6806100d65f395ff3fe608060405234801561000f575f5ffd5b50600436106101f2575f3560e01c806365e8e4f411610114578063a217fddf116100a9578063d0c4247611610079578063d0c42476146103ff578063d547741f14610408578063e84f43b71461041b578063f2c336d214610430578063fc0c546a14610438575f5ffd5b8063a217fddf146103da578063c4cea797146103e1578063cbcb3171146103e9578063cea5725a146103f2575f5ffd5b80638aeda25a116100e45780638aeda25a1461038e57806391d14854146103b55780639e5f2602146103c85780639e7206ac146103d2575f5ffd5b806365e8e4f41461034c578063727dfecc1461035f5780637f544e491461037257806387a6e2101461037b575f5ffd5b80632bb06a851161018a57806337f90ff61161015a57806337f90ff61461030b5780633d2fa2d214610314578063517382be146103275780635aa9722414610339575f5ffd5b80632bb06a85146102c95780632f2ff15d146102dc578063343ee3b7146102ef57806336568abe146102f8575f5ffd5b806311106ee2116101c557806311106ee2146102735780631dfefa1714610286578063248a9ca3146102a1578063278d6fd2146102b4575f5ffd5b80630112090f146101f657806301ffc9a71461021257806302d05d3f146102355780630e2479d814610260575b5f5ffd5b6101ff60055481565b6040519081526020015b60405180910390f35b610225610220366004612b51565b61044b565b6040519015158152602001610209565b600154610248906001600160a01b031681565b6040516001600160a01b039091168152602001610209565b6101ff61026e366004612b85565b610481565b6101ff610281366004612b85565b610496565b61028e60c881565b60405160029190910b8152602001610209565b6101ff6102af366004612bb3565b6104a2565b6102c76102c2366004612bca565b6104c2565b005b6101ff6102d7366004612bfe565b505f90565b6102c76102ea366004612c19565b610558565b6101ff603a5481565b6102c7610306366004612c19565b610574565b6101ff603d5481565b600454610248906001600160a01b031681565b5f54610248906001600160a01b031681565b6102c7610347366004612bca565b6105ac565b6102c761035a366004612c50565b610614565b6102c761036d366004612bca565b610746565b6101ff60065481565b6102c7610389366004612bca565b6107c6565b6101ff7f828634d95e775031b9ff576b159a8509d3053581a8c9c4d7d86899e0afcd882f81565b6102256103c3366004612c19565b61082e565b6006541515610225565b6102c7610864565b6101ff5f81565b6102c7611023565b6101ff603c5481565b6007546102259060ff1681565b6101ff603b5481565b6102c7610416366004612c19565b611307565b610423611323565b6040516102099190612d68565b6101ff6113af565b600254610248906001600160a01b031681565b5f6001600160e01b03198216637965db0b60e01b148061047b57506301ffc9a760e01b6001600160e01b03198316145b92915050565b5f5f61048d84846113e5565b50949350505050565b5f5f61048d8484611488565b5f9081525f5160206131815f395f51905f52602052604090206001015490565b600654156104e357604051639d4b788560e01b815260040160405180910390fd5b5f5f6104ef845f611488565b9150915082821015610523576040516348af1af960e01b815260048101839052602481018490526044015b60405180910390fd5b603c5482111561053e57610539603c5485610746565b610552565b61055261054b8286612d8e565b828461152c565b50505050565b610561826104a2565b61056a816117f1565b61055283836117fe565b6001600160a01b038116331461059d5760405163334bd91960e11b815260040160405180910390fd5b6105a782826118a6565b505050565b600654156105cd57604051639d4b788560e01b815260040160405180910390fd5b5f5f6105da846001611488565b9150915082821015610609576040516348af1af960e01b8152600481018390526024810184905260440161051a565b61055284838361191f565b5f61061d611be3565b805490915060ff600160401b820416159067ffffffffffffffff165f811580156106445750825b90505f8267ffffffffffffffff1660011480156106605750303b155b90508115801561066e575080155b1561068c5760405163f92ee8a960e01b815260040160405180910390fd5b845467ffffffffffffffff1916600117855583156106b657845460ff60401b1916600160401b1785555b6106c289898989611c0b565b6c015ab47acf627dbfeda4000000603a556907792d657f16a752bc00603b55688021d8e17ee1dd464760191b603c555f603d55831561073b57845460ff60401b19168555604051600181527fc7f505b2f371ae2175ee4913f4499e1f2633a7b5936321eed1cdaeb6115181d29060200160405180910390a15b505050505050505050565b6006541561076757604051639d4b788560e01b815260040160405180910390fd5b603c5482111561077757603c5491505b5f5f610783845f6113e5565b91509150828211156107b2576040516348af1af960e01b8152600481018390526024810184905260440161051a565b6105526107bf8284612d8e565b828661152c565b600654156107e757604051639d4b788560e01b815260040160405180910390fd5b5f5f6107f48460016113e5565b9150915082821115610823576040516348af1af960e01b8152600481018390526024810184905260440161051a565b61055282858361191f565b5f9182525f5160206131815f395f51905f52602090815260408084206001600160a01b0393909316845291905290205460ff1690565b6006546108845760405163d66173a560e01b815260040160405180910390fd5b5f5f5f9054906101000a90046001600160a01b03166001600160a01b031663d4bc15bc6040518163ffffffff1660e01b8152600401602060405180830381865afa1580156108d4573d5f5f3e3d5ffd5b505050506040513d601f19601f820116820180604052508101906108f89190612da1565b6002546040516370a0823160e01b81523060048201529192505f916001600160a01b03909116906370a0823190602401602060405180830381865afa158015610943573d5f5f3e3d5ffd5b505050506040513d601f19601f820116820180604052508101906109679190612dbc565b90505f5f5f9054906101000a90046001600160a01b03166001600160a01b031663ea85d4626040518163ffffffff1660e01b8152600401602060405180830381865afa1580156109b9573d5f5f3e3d5ffd5b505050506040513d601f19601f820116820180604052508101906109dd9190612da1565b6040516370a0823160e01b81523060048201526001600160a01b0391909116906370a0823190602401602060405180830381865afa158015610a21573d5f5f3e3d5ffd5b505050506040513d601f19601f82011682018060405250810190610a459190612dbc565b60408051608081018252600554815230602082019081526001600160801b0382840181815260608401828152945163fc6f786560e01b81529351600485015291516001600160a01b0390811660248501529151811660448401529251909216606482015291925084169063fc6f78659060840160408051808303815f875af1158015610ad3573d5f5f3e3d5ffd5b505050506040513d601f19601f82011682018060405250810190610af79190612dd3565b50506002546040516370a0823160e01b81523060048201525f9184916001600160a01b03909116906370a0823190602401602060405180830381865afa158015610b43573d5f5f3e3d5ffd5b505050506040513d601f19601f82011682018060405250810190610b679190612dbc565b610b719190612d8e565b90505f825f5f9054906101000a90046001600160a01b03166001600160a01b031663ea85d4626040518163ffffffff1660e01b8152600401602060405180830381865afa158015610bc4573d5f5f3e3d5ffd5b505050506040513d601f19601f82011682018060405250810190610be89190612da1565b6040516370a0823160e01b81523060048201526001600160a01b0391909116906370a0823190602401602060405180830381865afa158015610c2c573d5f5f3e3d5ffd5b505050506040513d601f19601f82011682018060405250810190610c509190612dbc565b610c5a9190612d8e565b90508115610dc6576002545f546040805163326f824f60e11b815290516001600160a01b039384169363a9059cbb9316916364df049e9160048083019260209291908290030181865afa158015610cb3573d5f5f3e3d5ffd5b505050506040513d601f19601f82011682018060405250810190610cd79190612da1565b610ce2600286612e09565b6040518363ffffffff1660e01b8152600401610cff929190612e1c565b6020604051808303815f875af1158015610d1b573d5f5f3e3d5ffd5b505050506040513d601f19601f82011682018060405250810190610d3f9190612e35565b50600280546001546001600160a01b039182169263a9059cbb9290911690610d679086612e09565b6040518363ffffffff1660e01b8152600401610d84929190612e1c565b6020604051808303815f875af1158015610da0573d5f5f3e3d5ffd5b505050506040513d601f19601f82011682018060405250810190610dc49190612e35565b505b801561101c575f5f9054906101000a90046001600160a01b03166001600160a01b031663ea85d4626040518163ffffffff1660e01b8152600401602060405180830381865afa158015610e1b573d5f5f3e3d5ffd5b505050506040513d601f19601f82011682018060405250810190610e3f9190612da1565b6001600160a01b031663a9059cbb5f5f9054906101000a90046001600160a01b03166001600160a01b03166364df049e6040518163ffffffff1660e01b8152600401602060405180830381865afa158015610e9c573d5f5f3e3d5ffd5b505050506040513d601f19601f82011682018060405250810190610ec09190612da1565b610ecb600285612e09565b6040518363ffffffff1660e01b8152600401610ee8929190612e1c565b6020604051808303815f875af1158015610f04573d5f5f3e3d5ffd5b505050506040513d601f19601f82011682018060405250810190610f289190612e35565b505f5f9054906101000a90046001600160a01b03166001600160a01b031663ea85d4626040518163ffffffff1660e01b8152600401602060405180830381865afa158015610f78573d5f5f3e3d5ffd5b505050506040513d601f19601f82011682018060405250810190610f9c9190612da1565b6001546001600160a01b039182169163a9059cbb9116610fbd600285612e09565b6040518363ffffffff1660e01b8152600401610fda929190612e1c565b6020604051808303815f875af1158015610ff6573d5f5f3e3d5ffd5b505050506040513d601f19601f8201168201806040525081019061101a9190612e35565b505b5050505050565b6006546110435760405163d66173a560e01b815260040160405180910390fd5b5f5f5f9054906101000a90046001600160a01b03166001600160a01b031663c45a01556040518163ffffffff1660e01b8152600401602060405180830381865afa158015611093573d5f5f3e3d5ffd5b505050506040513d601f19601f820116820180604052508101906110b79190612da1565b6001600160a01b031663e468014d6040518163ffffffff1660e01b8152600401602060405180830381865afa1580156110f2573d5f5f3e3d5ffd5b505050506040513d601f19601f820116820180604052508101906111169190612dbc565b9050806006546111269190612e50565b42101561115e57428160065461113c9190612e50565b604051630e90dfd360e31b81526004810192909252602482015260440161051a565b60075460ff1615611182576040516306c1edfd60e31b815260040160405180910390fd5b6007805460ff19166001908117909155600254905460405163a9059cbb60e01b81526001600160a01b039283169263a9059cbb926111d3929116906b06765c793fa10079d000000090600401612e1c565b6020604051808303815f875af11580156111ef573d5f5f3e3d5ffd5b505050506040513d601f19601f820116820180604052508101906112139190612e35565b505f5f9054906101000a90046001600160a01b03166001600160a01b031663ea85d4626040518163ffffffff1660e01b8152600401602060405180830381865afa158015611263573d5f5f3e3d5ffd5b505050506040513d601f19601f820116820180604052508101906112879190612da1565b60015460405163a9059cbb60e01b81526001600160a01b039283169263a9059cbb926112c392911690686c6b935b8bbd40000090600401612e1c565b6020604051808303815f875af11580156112df573d5f5f3e3d5ffd5b505050506040513d601f19601f820116820180604052508101906113039190612e35565b5050565b611310826104a2565b611319816117f1565b61055283836118a6565b6003805461133090612e63565b80601f016020809104026020016040519081016040528092919081815260200182805461135c90612e63565b80156113a75780601f1061137e576101008083540402835291602001916113a7565b820191905f5260205f20905b81548152906001019060200180831161138a57829003601f168201915b505050505081565b5f6113d3688021d8e17ee1dd464760191b6c015ab47acf627dbfeda4000000612d8e565b603a546113e09190612d8e565b905090565b5f5f8215611439575f6114076127106113ff603282612d8e565b879190611d03565b90506114138582612d8e565b9150611431603a5482603b546114299190612d8e565b839190611da0565b925050611481565b5f611456603b5486603a5461144e9190612d8e565b879190611da0565b9050611471612710611469603282612d8e565b839190611d03565b925061147d8184612d8e565b9150505b9250929050565b5f5f82156114dd575f6114ad8586603a546114a39190612e50565b603b549190611d03565b90506114c96114bf6032612710612d8e565b8290612710611d03565b92506114d58382612d8e565b915050611481565b5f6114f86114ee6032612710612d8e565b8690612710611d03565b90506115048186612d8e565b91506115228182603b546115189190612e50565b603a549190611d03565b9250509250929050565b80603a5f82825461153d9190612d8e565b9250508190555082603b5f8282546115559190612e50565b9250508190555080603c5f82825461156d9190612d8e565b9250508190555082603d5f8282546115859190612e50565b90915550505f5460408051637542ea3160e11b8152905161160d923392309288926001600160a01b03169163ea85d4629160048083019260209291908290030181865afa1580156115d8573d5f5f3e3d5ffd5b505050506040513d601f19601f820116820180604052508101906115fc9190612da1565b6001600160a01b0316929190611dd0565b6116ca335f5f9054906101000a90046001600160a01b03166001600160a01b03166364df049e6040518163ffffffff1660e01b8152600401602060405180830381865afa158015611660573d5f5f3e3d5ffd5b505050506040513d601f19601f820116820180604052508101906116849190612da1565b5f5460408051637542ea3160e11b8152905187926001600160a01b03169163ea85d4629160048083019260209291908290030181865afa1580156115d8573d5f5f3e3d5ffd5b6002546116e1906001600160a01b03163383611e37565b5f5f9054906101000a90046001600160a01b03166001600160a01b0316639ff78c306040518163ffffffff1660e01b8152600401602060405180830381865afa158015611730573d5f5f3e3d5ffd5b505050506040513d601f19601f820116820180604052508101906117549190612da1565b604080513360208201528082018690526060810184905260808082018690528251808303909101815260a082019283905263befb8d3d60e01b9092526001600160a01b03929092169163befb8d3d916117b3916006919060a401612e95565b5f604051808303815f87803b1580156117ca575f5ffd5b505af11580156117dc573d5f5f3e3d5ffd5b50505050603c545f036105a7576105a7611e5d565b6117fb81336126d5565b50565b5f5f5160206131815f395f51905f52611817848461082e565b611896575f848152602082815260408083206001600160a01b03871684529091529020805460ff1916600117905561184c3390565b6001600160a01b0316836001600160a01b0316857f2f8788117e7eff1d82e926ec794901d17c78024a50270940304540a733656f0d60405160405180910390a4600191505061047b565b5f91505061047b565b5092915050565b5f5f5160206131815f395f51905f526118bf848461082e565b15611896575f848152602082815260408083206001600160a01b0387168085529252808320805460ff1916905551339287917ff6391f5c32d9c69d2a47ea670b442974b53935d1edc7fd64eb21e047a839171b9190a4600191505061047b565b5f61192a8284612e50565b905083603a5f82825461193d9190612e50565b9250508190555080603b5f8282546119559190612d8e565b9250508190555083603c5f82825461196d9190612e50565b9250508190555080603d5f8282546119859190612d8e565b92505081905550611a1433845f5f9054906101000a90046001600160a01b03166001600160a01b031663ea85d4626040518163ffffffff1660e01b8152600401602060405180830381865afa1580156119e0573d5f5f3e3d5ffd5b505050506040513d601f19601f82011682018060405250810190611a049190612da1565b6001600160a01b03169190611e37565b5f546040805163326f824f60e11b81529051611ac6926001600160a01b0316916364df049e9160048083019260209291908290030181865afa158015611a5c573d5f5f3e3d5ffd5b505050506040513d601f19601f82011682018060405250810190611a809190612da1565b5f5460408051637542ea3160e11b8152905186926001600160a01b03169163ea85d4629160048083019260209291908290030181865afa1580156119e0573d5f5f3e3d5ffd5b600254611ade906001600160a01b0316333087611dd0565b5f5f9054906101000a90046001600160a01b03166001600160a01b0316639ff78c306040518163ffffffff1660e01b8152600401602060405180830381865afa158015611b2d573d5f5f3e3d5ffd5b505050506040513d601f19601f82011682018060405250810190611b519190612da1565b604080513360208201528082018790526060810184905260808082018690528251808303909101815260a082019283905263befb8d3d60e01b9092526001600160a01b03929092169163befb8d3d91611bb0916007919060a401612e95565b5f604051808303815f87803b158015611bc7575f5ffd5b505af1158015611bd9573d5f5f3e3d5ffd5b5050505050505050565b5f807ff0c57e16840df040f15088dc2f81fe391c3923bec73e23a9662efc9c229c6a0061047b565b611c13612700565b611c1b612727565b5f80546001600160a01b038086166001600160a01b0319928316179092556001805487841690831617905560028054928516929091169190911790556003611c638282612f15565b50611ccf5f5f1b846001600160a01b031663c45a01556040518163ffffffff1660e01b8152600401602060405180830381865afa158015611ca6573d5f5f3e3d5ffd5b505050506040513d601f19601f82011682018060405250810190611cca9190612da1565b6117fe565b50611cfa7f828634d95e775031b9ff576b159a8509d3053581a8c9c4d7d86899e0afcd882f856117fe565b5061055261272f565b5f838302815f1985870982811083820303915050808411611d22575f5ffd5b805f03611d3457508290049050611d99565b5f848688095f868103871696879004966002600389028118808a02820302808a02820302808a02820302808a02820302808a02820302808a02909103029181900381900460010186841190950394909402919094039290920491909117919091029150505b9392505050565b5f611dac848484611d03565b90508180611dbc57611dbc612df5565b83850915611d995760010180611d99575f5ffd5b6040516001600160a01b0384811660248301528381166044830152606482018390526105529186918216906323b872dd906084015b604051602081830303815290604052915060e01b6020820180516001600160e01b038381831617835250505050612a16565b6105a783846001600160a01b031663a9059cbb8585604051602401611e05929190612e1c565b60065415611e7e57604051639d4b788560e01b815260040160405180910390fd5b426006556002546004805460405163680eeb6960e11b81526001600160a01b03918216928101929092525f60248301529091169063d01dd6d2906044015f604051808303815f87803b158015611ed2575f5ffd5b505af1158015611ee4573d5f5f3e3d5ffd5b505050505f5f5f9054906101000a90046001600160a01b03166001600160a01b031663d4bc15bc6040518163ffffffff1660e01b8152600401602060405180830381865afa158015611f38573d5f5f3e3d5ffd5b505050506040513d601f19601f82011682018060405250810190611f5c9190612da1565b9050611f81688021d8e17ee1dd464760191b6c01431e0fae6d7217caa0000000612d8e565b6002546040516370a0823160e01b81523060048201526001600160a01b03909116906370a0823190602401602060405180830381865afa158015611fc7573d5f5f3e3d5ffd5b505050506040513d601f19601f82011682018060405250810190611feb9190612dbc565b1015612077576002546040516370a0823160e01b81523060048201526001600160a01b03909116906370a0823190602401602060405180830381865afa158015612037573d5f5f3e3d5ffd5b505050506040513d601f19601f8201168201806040525081019061205b9190612dbc565b604051631f971d4760e21b815260040161051a91815260200190565b5f5460408051637542ea3160e11b8152905169152d02c7e14af6800000926001600160a01b03169163ea85d4629160048083019260209291908290030181865afa1580156120c7573d5f5f3e3d5ffd5b505050506040513d601f19601f820116820180604052508101906120eb9190612da1565b6040516370a0823160e01b81523060048201526001600160a01b0391909116906370a0823190602401602060405180830381865afa15801561212f573d5f5f3e3d5ffd5b505050506040513d601f19601f820116820180604052508101906121539190612dbc565b1015612250575f5f9054906101000a90046001600160a01b03166001600160a01b031663ea85d4626040518163ffffffff1660e01b8152600401602060405180830381865afa1580156121a8573d5f5f3e3d5ffd5b505050506040513d601f19601f820116820180604052508101906121cc9190612da1565b6040516370a0823160e01b81523060048201526001600160a01b0391909116906370a0823190602401602060405180830381865afa158015612210573d5f5f3e3d5ffd5b505050506040513d601f19601f820116820180604052508101906122349190612dbc565b60405163de272bfb60e01b815260040161051a91815260200190565b6002545f805460408051637542ea3160e11b815290516001600160a01b03948516949092169163ea85d462916004808201926020929091908290030181865afa15801561229f573d5f5f3e3d5ffd5b505050506040513d601f19601f820116820180604052508101906122c39190612da1565b90505f5f5f5f846001600160a01b0316866001600160a01b031610612340578486612301686c6b935b8bbd40000069152d02c7e14af6800000612d8e565b6b06765c793fa10079d0000000612331688021d8e17ee1dd464760191b6c01431e0fae6d7217caa0000000612d8e565b61233b9190612d8e565b612399565b85856b06765c793fa10079d0000000612372688021d8e17ee1dd464760191b6c01431e0fae6d7217caa0000000612d8e565b61237c9190612d8e565b612399686c6b935b8bbd40000069152d02c7e14af6800000612d8e565b9350935093509350836001600160a01b031663095ea7b388846040518363ffffffff1660e01b81526004016123cf929190612e1c565b6020604051808303815f875af11580156123eb573d5f5f3e3d5ffd5b505050506040513d601f19601f8201168201806040525081019061240f9190612e35565b5060405163095ea7b360e01b81526001600160a01b0384169063095ea7b39061243e908a908590600401612e1c565b6020604051808303815f875af115801561245a573d5f5f3e3d5ffd5b505050506040513d601f19601f8201168201806040525081019061247e9190612e35565b505f60c861249081620d89e719612fd0565b61249a9190613008565b90505f60c8806124ad620d89e719613027565b6124b79190612fd0565b6124c19190613008565b9050886001600160a01b031663b5007d1f604051806101800160405280896001600160a01b03168152602001886001600160a01b0316815260200160c860020b81526020018560020b81526020018460020b815260200187815260200186815260200160648860636125339190613047565b61253d9190612e09565b8152602001606461254f886063613047565b6125599190612e09565b8152602001306001600160a01b031681526020014281526020015f6001600160a01b03168152506040518263ffffffff1660e01b815260040161259c919061305e565b6080604051808303815f875af11580156125b8573d5f5f3e3d5ffd5b505050506040513d601f19601f820116820180604052508101906125dc9190613139565b5050506005555f54604080516309ff78c360e41b815290516001600160a01b0390921691639ff78c30916004808201926020929091908290030181865afa158015612629573d5f5f3e3d5ffd5b505050506040513d601f19601f8201168201806040525081019061264d9190612da1565b6001600160a01b031663befb8d3d5f60055460405160200161267191815260200190565b6040516020818303038152906040526040518363ffffffff1660e01b815260040161269d929190612e95565b5f604051808303815f87803b1580156126b4575f5ffd5b505af11580156126c6573d5f5f3e3d5ffd5b50505050505050505050505050565b6126df828261082e565b61130357808260405163e2517d3f60e01b815260040161051a929190612e1c565b612708612a82565b61272557604051631afcd79f60e31b815260040160405180910390fd5b565b612725612700565b5f5f5f9054906101000a90046001600160a01b03166001600160a01b031663d4bc15bc6040518163ffffffff1660e01b8152600401602060405180830381865afa15801561277f573d5f5f3e3d5ffd5b505050506040513d601f19601f820116820180604052508101906127a39190612da1565b90505f816001600160a01b031663c45a01556040518163ffffffff1660e01b8152600401602060405180830381865afa1580156127e2573d5f5f3e3d5ffd5b505050506040513d601f19601f820116820180604052508101906128069190612da1565b6002545f805460408051637542ea3160e11b815290519495506001600160a01b039384169492939091169163ea85d462916004808201926020929091908290030181865afa15801561285a573d5f5f3e3d5ffd5b505050506040513d601f19601f8201168201806040525081019061287e9190612da1565b90505f5f5f5f846001600160a01b0316866001600160a01b0316106128fb5784866128bc686c6b935b8bbd40000069152d02c7e14af6800000612d8e565b6b06765c793fa10079d00000006128ec688021d8e17ee1dd464760191b6c01431e0fae6d7217caa0000000612d8e565b6128f69190612d8e565b612954565b85856b06765c793fa10079d000000061292d688021d8e17ee1dd464760191b6c01431e0fae6d7217caa0000000612d8e565b6129379190612d8e565b612954686c6b935b8bbd40000069152d02c7e14af6800000612d8e565b93509350935093505f6129678383612a9b565b6040516308caa96b60e21b81526001600160a01b038781166004830152868116602483015260c8604483015280831660648301529192509089169063232aa5ac906084016020604051808303815f875af11580156129c7573d5f5f3e3d5ffd5b505050506040513d601f19601f820116820180604052508101906129eb9190612da1565b600480546001600160a01b0319166001600160a01b0392909216919091179055505050505050505050565b5f5f60205f8451602086015f885af180612a35576040513d5f823e3d81fd5b50505f513d91508115612a4c578060011415612a59565b6001600160a01b0384163b155b1561055257604051635274afe760e01b81526001600160a01b038516600482015260240161051a565b5f612a8b611be3565b54600160401b900460ff16919050565b5f80612ab28369d3c21bcecceda100000086611d03565b90505f612abe82612add565b9050612ad481600160601b64e8d4a51000611d03565b95945050505050565b5f6003821115612b3c5750805f612af5600283612e09565b612b00906001612e50565b90505b81811015612b3657905080600281612b1b8186612e09565b612b259190612e50565b612b2f9190612e09565b9050612b03565b50919050565b8115612b4a57506001919050565b505f919050565b5f60208284031215612b61575f5ffd5b81356001600160e01b031981168114611d99575f5ffd5b80151581146117fb575f5ffd5b5f5f60408385031215612b96575f5ffd5b823591506020830135612ba881612b78565b809150509250929050565b5f60208284031215612bc3575f5ffd5b5035919050565b5f5f60408385031215612bdb575f5ffd5b50508035926020909101359150565b6001600160a01b03811681146117fb575f5ffd5b5f60208284031215612c0e575f5ffd5b8135611d9981612bea565b5f5f60408385031215612c2a575f5ffd5b823591506020830135612ba881612bea565b634e487b7160e01b5f52604160045260245ffd5b5f5f5f5f60808587031215612c63575f5ffd5b8435612c6e81612bea565b93506020850135612c7e81612bea565b92506040850135612c8e81612bea565b9150606085013567ffffffffffffffff811115612ca9575f5ffd5b8501601f81018713612cb9575f5ffd5b803567ffffffffffffffff811115612cd357612cd3612c3c565b604051601f8201601f19908116603f0116810167ffffffffffffffff81118282101715612d0257612d02612c3c565b604052818152828201602001891015612d19575f5ffd5b816020840160208301375f6020838301015280935050505092959194509250565b5f81518084528060208401602086015e5f602082860101526020601f19601f83011685010191505092915050565b602081525f611d996020830184612d3a565b634e487b7160e01b5f52601160045260245ffd5b8181038181111561047b5761047b612d7a565b5f60208284031215612db1575f5ffd5b8151611d9981612bea565b5f60208284031215612dcc575f5ffd5b5051919050565b5f5f60408385031215612de4575f5ffd5b505080516020909101519092909150565b634e487b7160e01b5f52601260045260245ffd5b5f82612e1757612e17612df5565b500490565b6001600160a01b03929092168252602082015260400190565b5f60208284031215612e45575f5ffd5b8151611d9981612b78565b8082018082111561047b5761047b612d7a565b600181811c90821680612e7757607f821691505b602082108103612b3657634e487b7160e01b5f52602260045260245ffd5b5f600d8410612eb257634e487b7160e01b5f52602160045260245ffd5b83825260406020830152612ec96040830184612d3a565b949350505050565b601f8211156105a757805f5260205f20601f840160051c81016020851015612ef65750805b601f840160051c820191505b8181101561101c575f8155600101612f02565b815167ffffffffffffffff811115612f2f57612f2f612c3c565b612f4381612f3d8454612e63565b84612ed1565b6020601f821160018114612f75575f8315612f5e5750848201515b5f19600385901b1c1916600184901b17845561101c565b5f84815260208120601f198516915b82811015612fa45787850151825560209485019460019092019101612f84565b5084821015612fc157868401515f19600387901b60f8161c191681555b50505050600190811b01905550565b5f8160020b8360020b80612fe657612fe6612df5565b627fffff1982145f1982141615612fff57612fff612d7a565b90059392505050565b5f8260020b8260020b028060020b915080821461189f5761189f612d7a565b5f8160020b627fffff19810361303f5761303f612d7a565b5f0392915050565b808202811582820484141761047b5761047b612d7a565b81516001600160a01b031681526101808101602083015161308a60208401826001600160a01b03169052565b50604083015161309f604084018260020b9052565b5060608301516130b4606084018260020b9052565b5060808301516130c9608084018260020b9052565b5060a083015160a083015260c083015160c083015260e083015160e08301526101008301516101008301526101208301516131106101208401826001600160a01b03169052565b5061014083015161014083015261016083015161189f6101608401826001600160a01b03169052565b5f5f5f5f6080858703121561314c575f5ffd5b845160208601519094506001600160801b038116811461316a575f5ffd5b604086015160609096015194979096509250505056fe02dd7bc7dec4dceedda775e58dd541e08a116c6c53815c0bd028192f7b626800a2646970667358221220d23e716eb3bcbe50a85eacf88dc331c9b5d4178a3012aa1b8fca51b1f298faba64736f6c634300081c0033",
  "linkReferences": {},
  "deployedLinkReferences": {},
  "immutableReferences": {},
  "inputSourceName": "project/contracts/AweBondingCurvePool.sol",
  "buildInfoId": "solc-0_8_28-6199f7bda2b764aca289a3ead84a8f9c15f56c8c"
}