{
  "_format": "hh3-artifact-1",
  "contractName": "AweDaoPool",
  "sourceName": "contracts/AweDaoPool.sol",
  "abi": [
    {
      "inputs": [],
      "stateMutability": "nonpayable",
      "type": "constructor"
    },
    {
      "inputs": [],
      "name": "AccessControlBadConfirmation",
      "type": "error"
    },
    {
      "inputs": [
        {
          "internalType": "address",
          "name": "account",
          "type": "address"
        },
        {
          "internalType": "bytes32",
          "name": "neededRole",
          "type": "bytes32"
        }
      ],
      "name": "AccessControlUnauthorizedAccount",
      "type": "error"
    },
    {
      "inputs": [],
      "name": "Claimed",
      "type": "error"
    },
    {
      "inputs": [
        {
          "internalType": "uint256",
          "name": "blockTimestamp",
          "type": "uint256"
        },
        {
          "internalType": "uint256",
          "name": "graduatedAt",
          "type": "uint256"
        }
      ],
      "name": "CreatorClaimTooEarly",
      "type": "error"
    },
    {
      "inputs": [],
      "name": "CreatorClaimed",
      "type": "error"
    },
    {
      "inputs": [],
      "name": "Ended",
      "type": "error"
    },
    {
      "inputs": [],
      "name": "Graduated",
      "type": "error"
    },
    {
      "inputs": [
        {
          "internalType": "uint256",
          "name": "amount",
          "type": "uint256"
        }
      ],
      "name": "InsufficientAweBalance",
      "type": "error"
    },
    {
      "inputs": [
        {
          "internalType": "uint256",
          "name": "amount",
          "type": "uint256"
        }
      ],
      "name": "InsufficientTokenBalance",
      "type": "error"
    },
    {
      "inputs": [],
      "name": "InvalidEndTime",
      "type": "error"
    },
    {
      "inputs": [],
      "name": "InvalidInitialization",
      "type": "error"
    },
    {
      "inputs": [
        {
          "internalType": "uint256",
          "name": "tokenForSale",
          "type": "uint256"
        }
      ],
      "name": "InvalidTokenForSale",
      "type": "error"
    },
    {
      "inputs": [],
      "name": "NotContributed",
      "type": "error"
    },
    {
      "inputs": [],
      "name": "NotGraduated",
      "type": "error"
    },
    {
      "inputs": [],
      "name": "NotInitializing",
      "type": "error"
    },
    {
      "inputs": [],
      "name": "Refunded",
      "type": "error"
    },
    {
      "inputs": [],
      "name": "Running",
      "type": "error"
    },
    {
      "inputs": [
        {
          "internalType": "address",
          "name": "token",
          "type": "address"
        }
      ],
      "name": "SafeERC20FailedOperation",
      "type": "error"
    },
    {
      "anonymous": false,
      "inputs": [
        {
          "indexed": false,
          "internalType": "uint64",
          "name": "version",
          "type": "uint64"
        }
      ],
      "name": "Initialized",
      "type": "event"
    },
    {
      "anonymous": false,
      "inputs": [
        {
          "indexed": true,
          "internalType": "bytes32",
          "name": "role",
          "type": "bytes32"
        },
        {
          "indexed": true,
          "internalType": "bytes32",
          "name": "previousAdminRole",
          "type": "bytes32"
        },
        {
          "indexed": true,
          "internalType": "bytes32",
          "name": "newAdminRole",
          "type": "bytes32"
        }
      ],
      "name": "RoleAdminChanged",
      "type": "event"
    },
    {
      "anonymous": false,
      "inputs": [
        {
          "indexed": true,
          "internalType": "bytes32",
          "name": "role",
          "type": "bytes32"
        },
        {
          "indexed": true,
          "internalType": "address",
          "name": "account",
          "type": "address"
        },
        {
          "indexed": true,
          "internalType": "address",
          "name": "sender",
          "type": "address"
        }
      ],
      "name": "RoleGranted",
      "type": "event"
    },
    {
      "anonymous": false,
      "inputs": [
        {
          "indexed": true,
          "internalType": "bytes32",
          "name": "role",
          "type": "bytes32"
        },
        {
          "indexed": true,
          "internalType": "address",
          "name": "account",
          "type": "address"
        },
        {
          "indexed": true,
          "internalType": "address",
          "name": "sender",
          "type": "address"
        }
      ],
      "name": "RoleRevoked",
      "type": "event"
    },
    {
      "inputs": [],
      "name": "CREATOR_ROLE",
      "outputs": [
        {
          "internalType": "bytes32",
          "name": "",
          "type": "bytes32"
        }
      ],
      "stateMutability": "view",
      "type": "function"
    },
    {
      "inputs": [],
      "name": "DEFAULT_ADMIN_ROLE",
      "outputs": [
        {
          "internalType": "bytes32",
          "name": "",
          "type": "bytes32"
        }
      ],
      "stateMutability": "view",
      "type": "function"
    },
    {
      "inputs": [],
      "name": "DEX_TICK_SPACING",
      "outputs": [
        {
          "internalType": "int24",
          "name": "",
          "type": "int24"
        }
      ],
      "stateMutability": "view",
      "type": "function"
    },
    {
      "inputs": [],
      "name": "SCHEDULES_ROLE",
      "outputs": [
        {
          "internalType": "bytes32",
          "name": "",
          "type": "bytes32"
        }
      ],
      "stateMutability": "view",
      "type": "function"
    },
    {
      "inputs": [],
      "name": "agentId",
      "outputs": [
        {
          "internalType": "string",
          "name": "",
          "type": "string"
        }
      ],
      "stateMutability": "view",
      "type": "function"
    },
    {
      "inputs": [],
      "name": "am",
      "outputs": [
        {
          "internalType": "contract IAddressManager",
          "name": "",
          "type": "address"
        }
      ],
      "stateMutability": "view",
      "type": "function"
    },
    {
      "inputs": [
        {
          "internalType": "address",
          "name": "user",
          "type": "address"
        }
      ],
      "name": "claim",
      "outputs": [],
      "stateMutability": "nonpayable",
      "type": "function"
    },
    {
      "inputs": [],
      "name": "claimCreatorReward",
      "outputs": [],
      "stateMutability": "nonpayable",
      "type": "function"
    },
    {
      "inputs": [],
      "name": "claimDexFees",
      "outputs": [],
      "stateMutability": "nonpayable",
      "type": "function"
    },
    {
      "inputs": [
        {
          "internalType": "uint256",
          "name": "amount",
          "type": "uint256"
        }
      ],
      "name": "contribute",
      "outputs": [],
      "stateMutability": "nonpayable",
      "type": "function"
    },
    {
      "inputs": [
        {
          "internalType": "address",
          "name": "",
          "type": "address"
        }
      ],
      "name": "contributions",
      "outputs": [
        {
          "internalType": "uint256",
          "name": "aweAmount",
          "type": "uint256"
        },
        {
          "internalType": "bool",
          "name": "refunded",
          "type": "bool"
        },
        {
          "internalType": "uint256",
          "name": "claimedTokenAmount",
          "type": "uint256"
        }
      ],
      "stateMutability": "view",
      "type": "function"
    },
    {
      "inputs": [],
      "name": "creator",
      "outputs": [
        {
          "internalType": "address",
          "name": "",
          "type": "address"
        }
      ],
      "stateMutability": "view",
      "type": "function"
    },
    {
      "inputs": [],
      "name": "creatorClaimed",
      "outputs": [
        {
          "internalType": "bool",
          "name": "",
          "type": "bool"
        }
      ],
      "stateMutability": "view",
      "type": "function"
    },
    {
      "inputs": [],
      "name": "dexNftId",
      "outputs": [
        {
          "internalType": "uint256",
          "name": "",
          "type": "uint256"
        }
      ],
      "stateMutability": "view",
      "type": "function"
    },
    {
      "inputs": [],
      "name": "dexPool",
      "outputs": [
        {
          "internalType": "address",
          "name": "",
          "type": "address"
        }
      ],
      "stateMutability": "view",
      "type": "function"
    },
    {
      "inputs": [],
      "name": "endTime",
      "outputs": [
        {
          "internalType": "uint256",
          "name": "",
          "type": "uint256"
        }
      ],
      "stateMutability": "view",
      "type": "function"
    },
    {
      "inputs": [
        {
          "internalType": "bytes32",
          "name": "role",
          "type": "bytes32"
        }
      ],
      "name": "getRoleAdmin",
      "outputs": [
        {
          "internalType": "bytes32",
          "name": "",
          "type": "bytes32"
        }
      ],
      "stateMutability": "view",
      "type": "function"
    },
    {
      "inputs": [
        {
          "internalType": "address",
          "name": "user",
          "type": "address"
        }
      ],
      "name": "getUserVestingAmount",
      "outputs": [
        {
          "internalType": "uint256",
          "name": "",
          "type": "uint256"
        }
      ],
      "stateMutability": "view",
      "type": "function"
    },
    {
      "inputs": [],
      "name": "graduatedAt",
      "outputs": [
        {
          "internalType": "uint256",
          "name": "",
          "type": "uint256"
        }
      ],
      "stateMutability": "view",
      "type": "function"
    },
    {
      "inputs": [
        {
          "internalType": "bytes32",
          "name": "role",
          "type": "bytes32"
        },
        {
          "internalType": "address",
          "name": "account",
          "type": "address"
        }
      ],
      "name": "grantRole",
      "outputs": [],
      "stateMutability": "nonpayable",
      "type": "function"
    },
    {
      "inputs": [
        {
          "internalType": "bytes32",
          "name": "role",
          "type": "bytes32"
        },
        {
          "internalType": "address",
          "name": "account",
          "type": "address"
        }
      ],
      "name": "hasRole",
      "outputs": [
        {
          "internalType": "bool",
          "name": "",
          "type": "bool"
        }
      ],
      "stateMutability": "view",
      "type": "function"
    },
    {
      "inputs": [
        {
          "internalType": "address",
          "name": "creator_",
          "type": "address"
        },
        {
          "internalType": "contract IAddressManager",
          "name": "addressManager_",
          "type": "address"
        },
        {
          "internalType": "address",
          "name": "token_",
          "type": "address"
        },
        {
          "internalType": "string",
          "name": "agentId_",
          "type": "string"
        },
        {
          "internalType": "uint256",
          "name": "endTime_",
          "type": "uint256"
        }
      ],
      "name": "initialize",
      "outputs": [],
      "stateMutability": "nonpayable",
      "type": "function"
    },
    {
      "inputs": [],
      "name": "isGraduated",
      "outputs": [
        {
          "internalType": "bool",
          "name": "",
          "type": "bool"
        }
      ],
      "stateMutability": "view",
      "type": "function"
    },
    {
      "inputs": [],
      "name": "refund",
      "outputs": [],
      "stateMutability": "nonpayable",
      "type": "function"
    },
    {
      "inputs": [],
      "name": "remainingAweForRaising",
      "outputs": [
        {
          "internalType": "uint256",
          "name": "",
          "type": "uint256"
        }
      ],
      "stateMutability": "view",
      "type": "function"
    },
    {
      "inputs": [
        {
          "internalType": "bytes32",
          "name": "role",
          "type": "bytes32"
        },
        {
          "internalType": "address",
          "name": "callerConfirmation",
          "type": "address"
        }
      ],
      "name": "renounceRole",
      "outputs": [],
      "stateMutability": "nonpayable",
      "type": "function"
    },
    {
      "inputs": [
        {
          "internalType": "bytes32",
          "name": "role",
          "type": "bytes32"
        },
        {
          "internalType": "address",
          "name": "account",
          "type": "address"
        }
      ],
      "name": "revokeRole",
      "outputs": [],
      "stateMutability": "nonpayable",
      "type": "function"
    },
    {
      "inputs": [
        {
          "components": [
            {
              "internalType": "uint256",
              "name": "date",
              "type": "uint256"
            },
            {
              "internalType": "uint256",
              "name": "endDate",
              "type": "uint256"
            },
            {
              "internalType": "uint256",
              "name": "unlockPercent",
              "type": "uint256"
            },
            {
              "internalType": "uint256",
              "name": "period",
              "type": "uint256"
            }
          ],
          "internalType": "struct IAweVesting.Schedule[]",
          "name": "schedules_",
          "type": "tuple[]"
        }
      ],
      "name": "setSchedules",
      "outputs": [],
      "stateMutability": "nonpayable",
      "type": "function"
    },
    {
      "inputs": [
        {
          "internalType": "bytes4",
          "name": "interfaceId",
          "type": "bytes4"
        }
      ],
      "name": "supportsInterface",
      "outputs": [
        {
          "internalType": "bool",
          "name": "",
          "type": "bool"
        }
      ],
      "stateMutability": "view",
      "type": "function"
    },
    {
      "inputs": [],
      "name": "token",
      "outputs": [
        {
          "internalType": "contract IERC20",
          "name": "",
          "type": "address"
        }
      ],
      "stateMutability": "view",
      "type": "function"
    },
    {
      "inputs": [],
      "name": "totalAweRaised",
      "outputs": [
        {
          "internalType": "uint256",
          "name": "",
          "type": "uint256"
        }
      ],
      "stateMutability": "view",
      "type": "function"
    },
    {
      "inputs": [],
      "name": "totalAweRefunded",
      "outputs": [
        {
          "internalType": "uint256",
          "name": "",
          "type": "uint256"
        }
      ],
      "stateMutability": "view",
      "type": "function"
    }
  ],
  "bytecode": "0x6080604052348015600e575f5ffd5b5060156019565b60c9565b7ff0c57e16840df040f15088dc2f81fe391c3923bec73e23a9662efc9c229c6a00805468010000000000000000900460ff161560685760405163f92ee8a960e01b815260040160405180910390fd5b80546001600160401b039081161460c65780546001600160401b0319166001600160401b0390811782556040519081527fc7f505b2f371ae2175ee4913f4499e1f2633a7b5936321eed1cdaeb6115181d29060200160405180910390a15b50565b61338d806100d65f395ff3fe608060405234801561000f575f5ffd5b50600436106101e7575f3560e01c80637e19275f11610109578063ad83e8411161009e578063d1760c041161006e578063d1760c0414610422578063d547741f1461042b578063e84f43b71461043e578063fc0c546a14610453575f5ffd5b8063ad83e841146103f2578063c1cbbca7146103fa578063c4cea7971461040d578063cea5725a14610415575f5ffd5b80639e5f2602116100d95780639e5f2602146103d05780639e7206ac146103da578063a217fddf146103e2578063aa68cdca146103e9575f5ffd5b80637e19275f1461037a5780637f544e491461038d5780638aeda25a1461039657806391d14854146103bd575f5ffd5b80633197cbb61161017f57806342e94c901161014f57806342e94c9014610301578063517382be1461034d578063590e1ae31461035f57806366dbe47c14610367575f5ffd5b80633197cbb6146102be57806333e94634146102c757806336568abe146102db5780633d2fa2d2146102ee575f5ffd5b80631e83409a116101ba5780631e83409a14610270578063248a9ca3146102855780632bb06a85146102985780632f2ff15d146102ab575f5ffd5b80630112090f146101eb57806301ffc9a71461020757806302d05d3f1461022a5780631dfefa1714610255575b5f5ffd5b6101f460055481565b6040519081526020015b60405180910390f35b61021a610215366004612baf565b610466565b60405190151581526020016101fe565b60015461023d906001600160a01b031681565b6040516001600160a01b0390911681526020016101fe565b61025d60c881565b60405160029190910b81526020016101fe565b61028361027e366004612bea565b61049c565b005b6101f4610293366004612c05565b610680565b6101f46102a6366004612bea565b6106a0565b6102836102b9366004612c1c565b6106d9565b6101f4603a5481565b6101f45f5160206133385f395f51905f5281565b6102836102e9366004612c1c565b6106fb565b60045461023d906001600160a01b031681565b61033261030f366004612bea565b603d6020525f9081526040902080546001820154600290920154909160ff169083565b604080519384529115156020840152908201526060016101fe565b5f5461023d906001600160a01b031681565b610283610733565b610283610375366004612cb8565b610977565b610283610388366004612d93565b610a5d565b6101f460065481565b6101f47f828634d95e775031b9ff576b159a8509d3053581a8c9c4d7d86899e0afcd882f81565b61021a6103cb366004612c1c565b610c25565b600654151561021a565b610283610c5b565b6101f45f81565b6101f4603b5481565b6101f4611411565b610283610408366004612c05565b61142f565b61028361164e565b60075461021a9060ff1681565b6101f4603c5481565b610283610439366004612c1c565b611933565b61044661194f565b6040516101fe9190612e93565b60025461023d906001600160a01b031681565b5f6001600160e01b03198216637965db0b60e01b148061049657506301ffc9a760e01b6001600160e01b03198316145b92915050565b603a544210156104bf5760405163531832e560e11b815260040160405180910390fd5b6006546104df5760405163d66173a560e01b815260040160405180910390fd5b6001600160a01b0381165f908152603d6020526040812080549091036105185760405163dbdc066d60e01b815260040160405180910390fd5b60028101541561053b576040516317968e5360e31b815260040160405180910390fd5b80545f9061056090688021d8e17ee1dd464760191b69152d02c7e14af68000006119db565b600280840182905554909150610580906001600160a01b03168483611a78565b5f5f9054906101000a90046001600160a01b03166001600160a01b0316639ff78c306040518163ffffffff1660e01b8152600401602060405180830381865afa1580156105cf573d5f5f3e3d5ffd5b505050506040513d601f19601f820116820180604052508101906105f39190612ea5565b8254604080516001600160a01b03878116602083015281830186905260608083019490945282518083039094018452608082019283905263befb8d3d60e01b90925292169163befb8d3d9161064e9160049190608401612ec0565b5f604051808303815f87803b158015610665575f5ffd5b505af1158015610677573d5f5f3e3d5ffd5b50505050505050565b5f9081525f5160206133185f395f51905f52602052604090206001015490565b6001600160a01b0381165f908152603d602052604081205461049690688021d8e17ee1dd464760191b69152d02c7e14af68000006119db565b6106e282610680565b6106eb81611ad0565b6106f58383611add565b50505050565b6001600160a01b03811633146107245760405163334bd91960e11b815260040160405180910390fd5b61072e8282611b85565b505050565b603a544210156107565760405163531832e560e11b815260040160405180910390fd5b6006541561077757604051639d4b788560e01b815260040160405180910390fd5b335f908152603d6020526040812080549091036107a75760405163dbdc066d60e01b815260040160405180910390fd5b600181015460ff16156107cd57604051638616bbbb60e01b815260040160405180910390fd5b6001818101805460ff191690911790558054603c80545f906107f0908490612f10565b9250508190555061088233825f01545f5f9054906101000a90046001600160a01b03166001600160a01b031663ea85d4626040518163ffffffff1660e01b8152600401602060405180830381865afa15801561084e573d5f5f3e3d5ffd5b505050506040513d601f19601f820116820180604052508101906108729190612ea5565b6001600160a01b03169190611a78565b5f5f9054906101000a90046001600160a01b03166001600160a01b0316639ff78c306040518163ffffffff1660e01b8152600401602060405180830381865afa1580156108d1573d5f5f3e3d5ffd5b505050506040513d601f19601f820116820180604052508101906108f59190612ea5565b6001600160a01b031663befb8d3d600333845f015460405160200161091b929190612f23565b6040516020818303038152906040526040518363ffffffff1660e01b8152600401610947929190612ec0565b5f604051808303815f87803b15801561095e575f5ffd5b505af1158015610970573d5f5f3e3d5ffd5b5050505050565b5f5160206133385f395f51905f5261098e81611ad0565b5f5f9054906101000a90046001600160a01b03166001600160a01b03166344c63eec6040518163ffffffff1660e01b8152600401602060405180830381865afa1580156109dd573d5f5f3e3d5ffd5b505050506040513d601f19601f82011682018060405250810190610a019190612ea5565b6001600160a01b03166366dbe47c836040518263ffffffff1660e01b8152600401610a2c9190612f3c565b5f604051808303815f87803b158015610a43575f5ffd5b505af1158015610a55573d5f5f3e3d5ffd5b505050505050565b5f610a66611bfe565b805490915060ff600160401b820416159067ffffffffffffffff165f81158015610a8d5750825b90505f8267ffffffffffffffff166001148015610aa95750303b155b905081158015610ab7575080155b15610ad55760405163f92ee8a960e01b815260040160405180910390fd5b845467ffffffffffffffff191660011785558315610aff57845460ff60401b1916600160401b1785555b610b0b8a8a8a8a611c26565b42861015610b2c576040516338af65f760e01b815260040160405180910390fd5b603a869055610b485f5160206133385f395f51905f528b611add565b50610bd25f5160206133385f395f51905f525f5f9054906101000a90046001600160a01b03166001600160a01b031663c45a01556040518163ffffffff1660e01b8152600401602060405180830381865afa158015610ba9573d5f5f3e3d5ffd5b505050506040513d601f19601f82011682018060405250810190610bcd9190612ea5565b611add565b508315610c1957845460ff60401b19168555604051600181527fc7f505b2f371ae2175ee4913f4499e1f2633a7b5936321eed1cdaeb6115181d29060200160405180910390a15b50505050505050505050565b5f9182525f5160206133185f395f51905f52602090815260408084206001600160a01b0393909316845291905290205460ff1690565b600654610c7b5760405163d66173a560e01b815260040160405180910390fd5b5f5f5f9054906101000a90046001600160a01b03166001600160a01b031663d4bc15bc6040518163ffffffff1660e01b8152600401602060405180830381865afa158015610ccb573d5f5f3e3d5ffd5b505050506040513d601f19601f82011682018060405250810190610cef9190612ea5565b6002546040516370a0823160e01b81523060048201529192505f916001600160a01b03909116906370a0823190602401602060405180830381865afa158015610d3a573d5f5f3e3d5ffd5b505050506040513d601f19601f82011682018060405250810190610d5e9190612fa4565b90505f5f5f9054906101000a90046001600160a01b03166001600160a01b031663ea85d4626040518163ffffffff1660e01b8152600401602060405180830381865afa158015610db0573d5f5f3e3d5ffd5b505050506040513d601f19601f82011682018060405250810190610dd49190612ea5565b6040516370a0823160e01b81523060048201526001600160a01b0391909116906370a0823190602401602060405180830381865afa158015610e18573d5f5f3e3d5ffd5b505050506040513d601f19601f82011682018060405250810190610e3c9190612fa4565b60408051608081018252600554815230602082019081526001600160801b0382840181815260608401828152945163fc6f786560e01b81529351600485015291516001600160a01b0390811660248501529151811660448401529251909216606482015291925084169063fc6f78659060840160408051808303815f875af1158015610eca573d5f5f3e3d5ffd5b505050506040513d601f19601f82011682018060405250810190610eee9190612fbb565b50506002546040516370a0823160e01b81523060048201525f9184916001600160a01b03909116906370a0823190602401602060405180830381865afa158015610f3a573d5f5f3e3d5ffd5b505050506040513d601f19601f82011682018060405250810190610f5e9190612fa4565b610f689190612fdd565b90505f825f5f9054906101000a90046001600160a01b03166001600160a01b031663ea85d4626040518163ffffffff1660e01b8152600401602060405180830381865afa158015610fbb573d5f5f3e3d5ffd5b505050506040513d601f19601f82011682018060405250810190610fdf9190612ea5565b6040516370a0823160e01b81523060048201526001600160a01b0391909116906370a0823190602401602060405180830381865afa158015611023573d5f5f3e3d5ffd5b505050506040513d601f19601f820116820180604052508101906110479190612fa4565b6110519190612fdd565b905081156111bd576002545f546040805163326f824f60e11b815290516001600160a01b039384169363a9059cbb9316916364df049e9160048083019260209291908290030181865afa1580156110aa573d5f5f3e3d5ffd5b505050506040513d601f19601f820116820180604052508101906110ce9190612ea5565b6110d9600286613004565b6040518363ffffffff1660e01b81526004016110f6929190612f23565b6020604051808303815f875af1158015611112573d5f5f3e3d5ffd5b505050506040513d601f19601f820116820180604052508101906111369190613017565b50600280546001546001600160a01b039182169263a9059cbb929091169061115e9086613004565b6040518363ffffffff1660e01b815260040161117b929190612f23565b6020604051808303815f875af1158015611197573d5f5f3e3d5ffd5b505050506040513d601f19601f820116820180604052508101906111bb9190613017565b505b8015610970575f5f9054906101000a90046001600160a01b03166001600160a01b031663ea85d4626040518163ffffffff1660e01b8152600401602060405180830381865afa158015611212573d5f5f3e3d5ffd5b505050506040513d601f19601f820116820180604052508101906112369190612ea5565b6001600160a01b031663a9059cbb5f5f9054906101000a90046001600160a01b03166001600160a01b03166364df049e6040518163ffffffff1660e01b8152600401602060405180830381865afa158015611293573d5f5f3e3d5ffd5b505050506040513d601f19601f820116820180604052508101906112b79190612ea5565b6112c2600285613004565b6040518363ffffffff1660e01b81526004016112df929190612f23565b6020604051808303815f875af11580156112fb573d5f5f3e3d5ffd5b505050506040513d601f19601f8201168201806040525081019061131f9190613017565b505f5f9054906101000a90046001600160a01b03166001600160a01b031663ea85d4626040518163ffffffff1660e01b8152600401602060405180830381865afa15801561136f573d5f5f3e3d5ffd5b505050506040513d601f19601f820116820180604052508101906113939190612ea5565b6001546001600160a01b039182169163a9059cbb91166113b4600285613004565b6040518363ffffffff1660e01b81526004016113d1929190612f23565b6020604051808303815f875af11580156113ed573d5f5f3e3d5ffd5b505050506040513d601f19601f82011682018060405250810190610a559190613017565b5f603b5469152d02c7e14af680000061142a9190612fdd565b905090565b603a5442106114515760405163477383f360e01b815260040160405180910390fd5b6006541561147257604051639d4b788560e01b815260040160405180910390fd5b5f61147b611411565b905080821115611489578091505b81603b5f82825461149a9190612f10565b9091555050335f908152603d6020526040812080548492906114bd908490612f10565b90915550505f5460408051637542ea3160e11b81529051611545923392309287926001600160a01b03169163ea85d4629160048083019260209291908290030181865afa158015611510573d5f5f3e3d5ffd5b505050506040513d601f19601f820116820180604052508101906115349190612ea5565b6001600160a01b0316929190611cf5565b5f5f9054906101000a90046001600160a01b03166001600160a01b0316639ff78c306040518163ffffffff1660e01b8152600401602060405180830381865afa158015611594573d5f5f3e3d5ffd5b505050506040513d601f19601f820116820180604052508101906115b89190612ea5565b6001600160a01b031663befb8d3d600233856040516020016115db929190612f23565b6040516020818303038152906040526040518363ffffffff1660e01b8152600401611607929190612ec0565b5f604051808303815f87803b15801561161e575f5ffd5b505af1158015611630573d5f5f3e3d5ffd5b5050505061163c611411565b5f0361164a5761164a611d2e565b5050565b60065461166e5760405163d66173a560e01b815260040160405180910390fd5b5f5f5f9054906101000a90046001600160a01b03166001600160a01b031663c45a01556040518163ffffffff1660e01b8152600401602060405180830381865afa1580156116be573d5f5f3e3d5ffd5b505050506040513d601f19601f820116820180604052508101906116e29190612ea5565b6001600160a01b031663e468014d6040518163ffffffff1660e01b8152600401602060405180830381865afa15801561171d573d5f5f3e3d5ffd5b505050506040513d601f19601f820116820180604052508101906117419190612fa4565b9050806006546117519190612f10565b42101561178e5742816006546117679190612f10565b604051630e90dfd360e31b8152600481019290925260248201526044015b60405180910390fd5b60075460ff16156117b2576040516306c1edfd60e31b815260040160405180910390fd5b6007805460ff19166001908117909155600254905460405163a9059cbb60e01b81526001600160a01b039283169263a9059cbb92611803929116906b06765c793fa10079d000000090600401612f23565b6020604051808303815f875af115801561181f573d5f5f3e3d5ffd5b505050506040513d601f19601f820116820180604052508101906118439190613017565b505f5f9054906101000a90046001600160a01b03166001600160a01b031663ea85d4626040518163ffffffff1660e01b8152600401602060405180830381865afa158015611893573d5f5f3e3d5ffd5b505050506040513d601f19601f820116820180604052508101906118b79190612ea5565b60015460405163a9059cbb60e01b81526001600160a01b039283169263a9059cbb926118f392911690686c6b935b8bbd40000090600401612f23565b6020604051808303815f875af115801561190f573d5f5f3e3d5ffd5b505050506040513d601f19601f8201168201806040525081019061164a9190613017565b61193c82610680565b61194581611ad0565b6106f58383611b85565b6003805461195c90613036565b80601f016020809104026020016040519081016040528092919081815260200182805461198890613036565b80156119d35780601f106119aa576101008083540402835291602001916119d3565b820191905f5260205f20905b8154815290600101906020018083116119b657829003601f168201915b505050505081565b5f838302815f19858709828110838203039150508084116119fa575f5ffd5b805f03611a0c57508290049050611a71565b5f848688095f868103871696879004966002600389028118808a02820302808a02820302808a02820302808a02820302808a02820302808a02909103029181900381900460010186841190950394909402919094039290920491909117919091029150505b9392505050565b61072e83846001600160a01b031663a9059cbb8585604051602401611a9e929190612f23565b604051602081830303815290604052915060e01b6020820180516001600160e01b038381831617835250505050611de4565b611ada8133611e50565b50565b5f5f5160206133185f395f51905f52611af68484610c25565b611b75575f848152602082815260408083206001600160a01b03871684529091529020805460ff19166001179055611b2b3390565b6001600160a01b0316836001600160a01b0316857f2f8788117e7eff1d82e926ec794901d17c78024a50270940304540a733656f0d60405160405180910390a46001915050610496565b5f915050610496565b5092915050565b5f5f5160206133185f395f51905f52611b9e8484610c25565b15611b75575f848152602082815260408083206001600160a01b0387168085529252808320805460ff1916905551339287917ff6391f5c32d9c69d2a47ea670b442974b53935d1edc7fd64eb21e047a839171b9190a46001915050610496565b5f807ff0c57e16840df040f15088dc2f81fe391c3923bec73e23a9662efc9c229c6a00610496565b611c2e611e7b565b611c36611ea0565b5f80546001600160a01b038086166001600160a01b0319928316179092556001805487841690831617905560028054928516929091169190911790556003611c7e82826130ac565b50611cc15f5f1b846001600160a01b031663c45a01556040518163ffffffff1660e01b8152600401602060405180830381865afa158015610ba9573d5f5f3e3d5ffd5b50611cec7f828634d95e775031b9ff576b159a8509d3053581a8c9c4d7d86899e0afcd882f85611add565b506106f5611ea8565b6040516001600160a01b0384811660248301528381166044830152606482018390526106f59186918216906323b872dd90608401611a9e565b60065415611d4f57604051639d4b788560e01b815260040160405180910390fd5b611d5761218f565b5f54604080516311318fbb60e21b81529051611de2926001600160a01b0316916344c63eec9160048083019260209291908290030181865afa158015611d9f573d5f5f3e3d5ffd5b505050506040513d601f19601f82011682018060405250810190611dc39190612ea5565b6002546001600160a01b031690688021d8e17ee1dd464760191b612a07565b565b5f5f60205f8451602086015f885af180611e03576040513d5f823e3d81fd5b50505f513d91508115611e1a578060011415611e27565b6001600160a01b0384163b155b156106f557604051635274afe760e01b81526001600160a01b0385166004820152602401611785565b611e5a8282610c25565b61164a57808260405163e2517d3f60e01b8152600401611785929190612f23565b611e83612a97565b611de257604051631afcd79f60e31b815260040160405180910390fd5b611de2611e7b565b5f5f5f9054906101000a90046001600160a01b03166001600160a01b031663d4bc15bc6040518163ffffffff1660e01b8152600401602060405180830381865afa158015611ef8573d5f5f3e3d5ffd5b505050506040513d601f19601f82011682018060405250810190611f1c9190612ea5565b90505f816001600160a01b031663c45a01556040518163ffffffff1660e01b8152600401602060405180830381865afa158015611f5b573d5f5f3e3d5ffd5b505050506040513d601f19601f82011682018060405250810190611f7f9190612ea5565b6002545f805460408051637542ea3160e11b815290519495506001600160a01b039384169492939091169163ea85d462916004808201926020929091908290030181865afa158015611fd3573d5f5f3e3d5ffd5b505050506040513d601f19601f82011682018060405250810190611ff79190612ea5565b90505f5f5f5f846001600160a01b0316866001600160a01b031610612074578486612035686c6b935b8bbd40000069152d02c7e14af6800000612fdd565b6b06765c793fa10079d0000000612065688021d8e17ee1dd464760191b6c01431e0fae6d7217caa0000000612fdd565b61206f9190612fdd565b6120cd565b85856b06765c793fa10079d00000006120a6688021d8e17ee1dd464760191b6c01431e0fae6d7217caa0000000612fdd565b6120b09190612fdd565b6120cd686c6b935b8bbd40000069152d02c7e14af6800000612fdd565b93509350935093505f6120e08383612ab0565b6040516308caa96b60e21b81526001600160a01b038781166004830152868116602483015260c8604483015280831660648301529192509089169063232aa5ac906084016020604051808303815f875af1158015612140573d5f5f3e3d5ffd5b505050506040513d601f19601f820116820180604052508101906121649190612ea5565b600480546001600160a01b0319166001600160a01b0392909216919091179055505050505050505050565b600654156121b057604051639d4b788560e01b815260040160405180910390fd5b426006556002546004805460405163680eeb6960e11b81526001600160a01b03918216928101929092525f60248301529091169063d01dd6d2906044015f604051808303815f87803b158015612204575f5ffd5b505af1158015612216573d5f5f3e3d5ffd5b505050505f5f5f9054906101000a90046001600160a01b03166001600160a01b031663d4bc15bc6040518163ffffffff1660e01b8152600401602060405180830381865afa15801561226a573d5f5f3e3d5ffd5b505050506040513d601f19601f8201168201806040525081019061228e9190612ea5565b90506122b3688021d8e17ee1dd464760191b6c01431e0fae6d7217caa0000000612fdd565b6002546040516370a0823160e01b81523060048201526001600160a01b03909116906370a0823190602401602060405180830381865afa1580156122f9573d5f5f3e3d5ffd5b505050506040513d601f19601f8201168201806040525081019061231d9190612fa4565b10156123a9576002546040516370a0823160e01b81523060048201526001600160a01b03909116906370a0823190602401602060405180830381865afa158015612369573d5f5f3e3d5ffd5b505050506040513d601f19601f8201168201806040525081019061238d9190612fa4565b604051631f971d4760e21b815260040161178591815260200190565b5f5460408051637542ea3160e11b8152905169152d02c7e14af6800000926001600160a01b03169163ea85d4629160048083019260209291908290030181865afa1580156123f9573d5f5f3e3d5ffd5b505050506040513d601f19601f8201168201806040525081019061241d9190612ea5565b6040516370a0823160e01b81523060048201526001600160a01b0391909116906370a0823190602401602060405180830381865afa158015612461573d5f5f3e3d5ffd5b505050506040513d601f19601f820116820180604052508101906124859190612fa4565b1015612582575f5f9054906101000a90046001600160a01b03166001600160a01b031663ea85d4626040518163ffffffff1660e01b8152600401602060405180830381865afa1580156124da573d5f5f3e3d5ffd5b505050506040513d601f19601f820116820180604052508101906124fe9190612ea5565b6040516370a0823160e01b81523060048201526001600160a01b0391909116906370a0823190602401602060405180830381865afa158015612542573d5f5f3e3d5ffd5b505050506040513d601f19601f820116820180604052508101906125669190612fa4565b60405163de272bfb60e01b815260040161178591815260200190565b6002545f805460408051637542ea3160e11b815290516001600160a01b03948516949092169163ea85d462916004808201926020929091908290030181865afa1580156125d1573d5f5f3e3d5ffd5b505050506040513d601f19601f820116820180604052508101906125f59190612ea5565b90505f5f5f5f846001600160a01b0316866001600160a01b031610612672578486612633686c6b935b8bbd40000069152d02c7e14af6800000612fdd565b6b06765c793fa10079d0000000612663688021d8e17ee1dd464760191b6c01431e0fae6d7217caa0000000612fdd565b61266d9190612fdd565b6126cb565b85856b06765c793fa10079d00000006126a4688021d8e17ee1dd464760191b6c01431e0fae6d7217caa0000000612fdd565b6126ae9190612fdd565b6126cb686c6b935b8bbd40000069152d02c7e14af6800000612fdd565b9350935093509350836001600160a01b031663095ea7b388846040518363ffffffff1660e01b8152600401612701929190612f23565b6020604051808303815f875af115801561271d573d5f5f3e3d5ffd5b505050506040513d601f19601f820116820180604052508101906127419190613017565b5060405163095ea7b360e01b81526001600160a01b0384169063095ea7b390612770908a908590600401612f23565b6020604051808303815f875af115801561278c573d5f5f3e3d5ffd5b505050506040513d601f19601f820116820180604052508101906127b09190613017565b505f60c86127c281620d89e719613167565b6127cc919061319f565b90505f60c8806127df620d89e7196131be565b6127e99190613167565b6127f3919061319f565b9050886001600160a01b031663b5007d1f604051806101800160405280896001600160a01b03168152602001886001600160a01b0316815260200160c860020b81526020018560020b81526020018460020b8152602001878152602001868152602001606488606361286591906131de565b61286f9190613004565b815260200160646128818860636131de565b61288b9190613004565b8152602001306001600160a01b031681526020014281526020015f6001600160a01b03168152506040518263ffffffff1660e01b81526004016128ce91906131f5565b6080604051808303815f875af11580156128ea573d5f5f3e3d5ffd5b505050506040513d601f19601f8201168201806040525081019061290e91906132d0565b5050506005555f54604080516309ff78c360e41b815290516001600160a01b0390921691639ff78c30916004808201926020929091908290030181865afa15801561295b573d5f5f3e3d5ffd5b505050506040513d601f19601f8201168201806040525081019061297f9190612ea5565b6001600160a01b031663befb8d3d5f6005546040516020016129a391815260200190565b6040516020818303038152906040526040518363ffffffff1660e01b81526004016129cf929190612ec0565b5f604051808303815f87803b1580156129e6575f5ffd5b505af11580156129f8573d5f5f3e3d5ffd5b50505050505050505050505050565b5f836001600160a01b031663095ea7b38484604051602401612a2a929190612f23565b604051602081830303815290604052915060e01b6020820180516001600160e01b0383818316178352505050509050612a638482612af2565b6106f557612a8d84856001600160a01b031663095ea7b3865f604051602401611a9e929190612f23565b6106f58482611de4565b5f612aa0611bfe565b54600160401b900460ff16919050565b5f80612ac78369d3c21bcecceda1000000866119db565b90505f612ad382612b3b565b9050612ae981600160601b64e8d4a510006119db565b95945050505050565b5f5f5f5f60205f8651602088015f8a5af192503d91505f519050828015612b3157508115612b235780600114612b31565b5f866001600160a01b03163b115b9695505050505050565b5f6003821115612b9a5750805f612b53600283613004565b612b5e906001612f10565b90505b81811015612b9457905080600281612b798186613004565b612b839190612f10565b612b8d9190613004565b9050612b61565b50919050565b8115612ba857506001919050565b505f919050565b5f60208284031215612bbf575f5ffd5b81356001600160e01b031981168114611a71575f5ffd5b6001600160a01b0381168114611ada575f5ffd5b5f60208284031215612bfa575f5ffd5b8135611a7181612bd6565b5f60208284031215612c15575f5ffd5b5035919050565b5f5f60408385031215612c2d575f5ffd5b823591506020830135612c3f81612bd6565b809150509250929050565b634e487b7160e01b5f52604160045260245ffd5b6040516080810167ffffffffffffffff81118282101715612c8157612c81612c4a565b60405290565b604051601f8201601f1916810167ffffffffffffffff81118282101715612cb057612cb0612c4a565b604052919050565b5f60208284031215612cc8575f5ffd5b813567ffffffffffffffff811115612cde575f5ffd5b8201601f81018413612cee575f5ffd5b803567ffffffffffffffff811115612d0857612d08612c4a565b612d1760208260051b01612c87565b8082825260208201915060208360071b850101925086831115612d38575f5ffd5b6020840193505b82841015612b315760808488031215612d56575f5ffd5b612d5e612c5e565b843581526020808601358183015260408087013590830152606080870135908301529083526080909401939190910190612d3f565b5f5f5f5f5f60a08688031215612da7575f5ffd5b8535612db281612bd6565b94506020860135612dc281612bd6565b93506040860135612dd281612bd6565b9250606086013567ffffffffffffffff811115612ded575f5ffd5b8601601f81018813612dfd575f5ffd5b803567ffffffffffffffff811115612e1757612e17612c4a565b612e2a601f8201601f1916602001612c87565b818152896020838501011115612e3e575f5ffd5b816020840160208301375f9181016020019190915295989497509295608001359392505050565b5f81518084528060208401602086015e5f602082860101526020601f19601f83011685010191505092915050565b602081525f611a716020830184612e65565b5f60208284031215612eb5575f5ffd5b8151611a7181612bd6565b5f600d8410612edd57634e487b7160e01b5f52602160045260245ffd5b83825260406020830152612ef46040830184612e65565b949350505050565b634e487b7160e01b5f52601160045260245ffd5b8082018082111561049657610496612efc565b6001600160a01b03929092168252602082015260400190565b602080825282518282018190525f918401906040840190835b81811015612f995783518051845260208101516020850152604081015160408501526060810151606085015250608083019250602084019350600181019050612f55565b509095945050505050565b5f60208284031215612fb4575f5ffd5b5051919050565b5f5f60408385031215612fcc575f5ffd5b505080516020909101519092909150565b8181038181111561049657610496612efc565b634e487b7160e01b5f52601260045260245ffd5b5f8261301257613012612ff0565b500490565b5f60208284031215613027575f5ffd5b81518015158114611a71575f5ffd5b600181811c9082168061304a57607f821691505b602082108103612b9457634e487b7160e01b5f52602260045260245ffd5b601f82111561072e57805f5260205f20601f840160051c8101602085101561308d5750805b601f840160051c820191505b81811015610970575f8155600101613099565b815167ffffffffffffffff8111156130c6576130c6612c4a565b6130da816130d48454613036565b84613068565b6020601f82116001811461310c575f83156130f55750848201515b5f19600385901b1c1916600184901b178455610970565b5f84815260208120601f198516915b8281101561313b578785015182556020948501946001909201910161311b565b508482101561315857868401515f19600387901b60f8161c191681555b50505050600190811b01905550565b5f8160020b8360020b8061317d5761317d612ff0565b627fffff1982145f198214161561319657613196612efc565b90059392505050565b5f8260020b8260020b028060020b9150808214611b7e57611b7e612efc565b5f8160020b627fffff1981036131d6576131d6612efc565b5f0392915050565b808202811582820484141761049657610496612efc565b81516001600160a01b031681526101808101602083015161322160208401826001600160a01b03169052565b506040830151613236604084018260020b9052565b50606083015161324b606084018260020b9052565b506080830151613260608084018260020b9052565b5060a083015160a083015260c083015160c083015260e083015160e08301526101008301516101008301526101208301516132a76101208401826001600160a01b03169052565b50610140830151610140830152610160830151611b7e6101608401826001600160a01b03169052565b5f5f5f5f608085870312156132e3575f5ffd5b845160208601519094506001600160801b0381168114613301575f5ffd5b604086015160609096015194979096509250505056fe02dd7bc7dec4dceedda775e58dd541e08a116c6c53815c0bd028192f7b626800d5c4a69239a89b06dc3580213c534273aae044ec5aa2cedc24952fb43efd0f00a2646970667358221220f3504998d39b8694fbb32212fae316788d62ca880d1acebe1ba3bca69384b86d64736f6c634300081c0033",
  "linkReferences": {},
  "deployedLinkReferences": {},
  "immutableReferences": {},
  "inputSourceName": "project/contracts/AweDaoPool.sol",
  "buildInfoId": "solc-0_8_28-6199f7bda2b764aca289a3ead84a8f9c15f56c8c"
}