{
  "_format": "hh3-artifact-1",
  "contractName": "AweFactory",
  "sourceName": "contracts/AweFactory.sol",
  "abi": [
    {
      "inputs": [],
      "stateMutability": "nonpayable",
      "type": "constructor"
    },
    {
      "inputs": [],
      "name": "AccessControlBadConfirmation",
      "type": "error"
    },
    {
      "inputs": [
        {
          "internalType": "address",
          "name": "account",
          "type": "address"
        },
        {
          "internalType": "bytes32",
          "name": "neededRole",
          "type": "bytes32"
        }
      ],
      "name": "AccessControlUnauthorizedAccount",
      "type": "error"
    },
    {
      "inputs": [
        {
          "internalType": "address",
          "name": "target",
          "type": "address"
        }
      ],
      "name": "AddressEmptyCode",
      "type": "error"
    },
    {
      "inputs": [
        {
          "internalType": "address",
          "name": "implementation",
          "type": "address"
        }
      ],
      "name": "ERC1967InvalidImplementation",
      "type": "error"
    },
    {
      "inputs": [],
      "name": "ERC1967NonPayable",
      "type": "error"
    },
    {
      "inputs": [],
      "name": "FailedCall",
      "type": "error"
    },
    {
      "inputs": [],
      "name": "InvalidInitialization",
      "type": "error"
    },
    {
      "inputs": [],
      "name": "NotInitializing",
      "type": "error"
    },
    {
      "inputs": [],
      "name": "UUPSUnauthorizedCallContext",
      "type": "error"
    },
    {
      "inputs": [
        {
          "internalType": "bytes32",
          "name": "slot",
          "type": "bytes32"
        }
      ],
      "name": "UUPSUnsupportedProxiableUUID",
      "type": "error"
    },
    {
      "anonymous": false,
      "inputs": [
        {
          "indexed": false,
          "internalType": "uint64",
          "name": "version",
          "type": "uint64"
        }
      ],
      "name": "Initialized",
      "type": "event"
    },
    {
      "anonymous": false,
      "inputs": [
        {
          "indexed": true,
          "internalType": "bytes32",
          "name": "role",
          "type": "bytes32"
        },
        {
          "indexed": true,
          "internalType": "bytes32",
          "name": "previousAdminRole",
          "type": "bytes32"
        },
        {
          "indexed": true,
          "internalType": "bytes32",
          "name": "newAdminRole",
          "type": "bytes32"
        }
      ],
      "name": "RoleAdminChanged",
      "type": "event"
    },
    {
      "anonymous": false,
      "inputs": [
        {
          "indexed": true,
          "internalType": "bytes32",
          "name": "role",
          "type": "bytes32"
        },
        {
          "indexed": true,
          "internalType": "address",
          "name": "account",
          "type": "address"
        },
        {
          "indexed": true,
          "internalType": "address",
          "name": "sender",
          "type": "address"
        }
      ],
      "name": "RoleGranted",
      "type": "event"
    },
    {
      "anonymous": false,
      "inputs": [
        {
          "indexed": true,
          "internalType": "bytes32",
          "name": "role",
          "type": "bytes32"
        },
        {
          "indexed": true,
          "internalType": "address",
          "name": "account",
          "type": "address"
        },
        {
          "indexed": true,
          "internalType": "address",
          "name": "sender",
          "type": "address"
        }
      ],
      "name": "RoleRevoked",
      "type": "event"
    },
    {
      "anonymous": false,
      "inputs": [
        {
          "indexed": true,
          "internalType": "address",
          "name": "implementation",
          "type": "address"
        }
      ],
      "name": "Upgraded",
      "type": "event"
    },
    {
      "inputs": [],
      "name": "DEFAULT_ADMIN_ROLE",
      "outputs": [
        {
          "internalType": "bytes32",
          "name": "",
          "type": "bytes32"
        }
      ],
      "stateMutability": "view",
      "type": "function"
    },
    {
      "inputs": [],
      "name": "UPGRADE_INTERFACE_VERSION",
      "outputs": [
        {
          "internalType": "string",
          "name": "",
          "type": "string"
        }
      ],
      "stateMutability": "view",
      "type": "function"
    },
    {
      "inputs": [],
      "name": "am",
      "outputs": [
        {
          "internalType": "contract IAddressManager",
          "name": "",
          "type": "address"
        }
      ],
      "stateMutability": "view",
      "type": "function"
    },
    {
      "inputs": [
        {
          "internalType": "string",
          "name": "name",
          "type": "string"
        },
        {
          "internalType": "string",
          "name": "symbol",
          "type": "string"
        },
        {
          "internalType": "string",
          "name": "agentId",
          "type": "string"
        }
      ],
      "name": "createBondingCurvePool",
      "outputs": [],
      "stateMutability": "nonpayable",
      "type": "function"
    },
    {
      "inputs": [
        {
          "internalType": "string",
          "name": "name",
          "type": "string"
        },
        {
          "internalType": "string",
          "name": "symbol",
          "type": "string"
        },
        {
          "internalType": "string",
          "name": "agentId",
          "type": "string"
        }
      ],
      "name": "createDaoPool",
      "outputs": [],
      "stateMutability": "nonpayable",
      "type": "function"
    },
    {
      "inputs": [],
      "name": "creatorClaimDelay",
      "outputs": [
        {
          "internalType": "uint256",
          "name": "",
          "type": "uint256"
        }
      ],
      "stateMutability": "view",
      "type": "function"
    },
    {
      "inputs": [],
      "name": "daoDuration",
      "outputs": [
        {
          "internalType": "uint256",
          "name": "",
          "type": "uint256"
        }
      ],
      "stateMutability": "view",
      "type": "function"
    },
    {
      "inputs": [
        {
          "internalType": "bytes32",
          "name": "role",
          "type": "bytes32"
        }
      ],
      "name": "getRoleAdmin",
      "outputs": [
        {
          "internalType": "bytes32",
          "name": "",
          "type": "bytes32"
        }
      ],
      "stateMutability": "view",
      "type": "function"
    },
    {
      "inputs": [
        {
          "internalType": "bytes32",
          "name": "role",
          "type": "bytes32"
        },
        {
          "internalType": "address",
          "name": "account",
          "type": "address"
        }
      ],
      "name": "grantRole",
      "outputs": [],
      "stateMutability": "nonpayable",
      "type": "function"
    },
    {
      "inputs": [
        {
          "internalType": "bytes32",
          "name": "role",
          "type": "bytes32"
        },
        {
          "internalType": "address",
          "name": "account",
          "type": "address"
        }
      ],
      "name": "hasRole",
      "outputs": [
        {
          "internalType": "bool",
          "name": "",
          "type": "bool"
        }
      ],
      "stateMutability": "view",
      "type": "function"
    },
    {
      "inputs": [
        {
          "internalType": "address",
          "name": "owner_",
          "type": "address"
        },
        {
          "internalType": "contract IAddressManager",
          "name": "addressManager_",
          "type": "address"
        }
      ],
      "name": "initialize",
      "outputs": [],
      "stateMutability": "nonpayable",
      "type": "function"
    },
    {
      "inputs": [],
      "name": "proxiableUUID",
      "outputs": [
        {
          "internalType": "bytes32",
          "name": "",
          "type": "bytes32"
        }
      ],
      "stateMutability": "view",
      "type": "function"
    },
    {
      "inputs": [
        {
          "internalType": "bytes32",
          "name": "role",
          "type": "bytes32"
        },
        {
          "internalType": "address",
          "name": "callerConfirmation",
          "type": "address"
        }
      ],
      "name": "renounceRole",
      "outputs": [],
      "stateMutability": "nonpayable",
      "type": "function"
    },
    {
      "inputs": [
        {
          "internalType": "bytes32",
          "name": "role",
          "type": "bytes32"
        },
        {
          "internalType": "address",
          "name": "account",
          "type": "address"
        }
      ],
      "name": "revokeRole",
      "outputs": [],
      "stateMutability": "nonpayable",
      "type": "function"
    },
    {
      "inputs": [
        {
          "internalType": "uint256",
          "name": "_creatorClaimDelay",
          "type": "uint256"
        }
      ],
      "name": "setCreatorClaimDelay",
      "outputs": [],
      "stateMutability": "nonpayable",
      "type": "function"
    },
    {
      "inputs": [
        {
          "internalType": "uint256",
          "name": "_daoDuration",
          "type": "uint256"
        }
      ],
      "name": "setDaoDuration",
      "outputs": [],
      "stateMutability": "nonpayable",
      "type": "function"
    },
    {
      "inputs": [
        {
          "internalType": "bytes4",
          "name": "interfaceId",
          "type": "bytes4"
        }
      ],
      "name": "supportsInterface",
      "outputs": [
        {
          "internalType": "bool",
          "name": "",
          "type": "bool"
        }
      ],
      "stateMutability": "view",
      "type": "function"
    },
    {
      "inputs": [
        {
          "internalType": "address",
          "name": "newImplementation",
          "type": "address"
        },
        {
          "internalType": "bytes",
          "name": "data",
          "type": "bytes"
        }
      ],
      "name": "upgradeToAndCall",
      "outputs": [],
      "stateMutability": "payable",
      "type": "function"
    }
  ],
  "bytecode": "0x60a060405230608052348015610013575f5ffd5b5061001c610021565b6100d3565b7ff0c57e16840df040f15088dc2f81fe391c3923bec73e23a9662efc9c229c6a00805468010000000000000000900460ff16156100715760405163f92ee8a960e01b815260040160405180910390fd5b80546001600160401b03908116146100d05780546001600160401b0319166001600160401b0390811782556040519081527fc7f505b2f371ae2175ee4913f4499e1f2633a7b5936321eed1cdaeb6115181d29060200160405180910390a15b50565b6080516120196100f95f395f818161105b0152818161108401526111ca01526120195ff3fe608060405260043610610105575f3560e01c806382509c3011610092578063ad3cb1cc11610062578063ad3cb1cc146102ab578063c6962957146102e8578063d547741f14610307578063e468014d14610326578063f093e1b21461033b575f5ffd5b806382509c301461024557806391d148541461025a578063962d7c3114610279578063a217fddf14610298575f5ffd5b806343b87c41116100d857806343b87c41146101aa578063485cc955146101c95780634f1ef286146101e8578063517382be146101fb57806352d1902d14610231575f5ffd5b806301ffc9a714610109578063248a9ca31461013d5780632f2ff15d1461016a57806336568abe1461018b575b5f5ffd5b348015610114575f5ffd5b5061012861012336600461162d565b61035a565b60405190151581526020015b60405180910390f35b348015610148575f5ffd5b5061015c610157366004611654565b610390565b604051908152602001610134565b348015610175575f5ffd5b5061018961018436600461167f565b6103b0565b005b348015610196575f5ffd5b506101896101a536600461167f565b6103d2565b3480156101b5575f5ffd5b506101896101c4366004611654565b61040a565b3480156101d4575f5ffd5b506101896101e33660046116ad565b61041a565b6101896101f6366004611764565b610546565b348015610206575f5ffd5b505f54610219906001600160a01b031681565b6040516001600160a01b039091168152602001610134565b34801561023c575f5ffd5b5061015c610565565b348015610250575f5ffd5b5061015c60025481565b348015610265575f5ffd5b5061012861027436600461167f565b610580565b348015610284575f5ffd5b506101896102933660046117e2565b6105b6565b3480156102a3575f5ffd5b5061015c5f81565b3480156102b6575f5ffd5b506102db604051806040016040528060058152602001640352e302e360dc1b81525081565b604051610134919061189e565b3480156102f3575f5ffd5b506101896103023660046117e2565b610a32565b348015610312575f5ffd5b5061018961032136600461167f565b610ecb565b348015610331575f5ffd5b5061015c60015481565b348015610346575f5ffd5b50610189610355366004611654565b610ee7565b5f6001600160e01b03198216637965db0b60e01b148061038a57506301ffc9a760e01b6001600160e01b03198316145b92915050565b5f9081525f516020611fc45f395f51905f52602052604090206001015490565b6103b982610390565b6103c281610ef7565b6103cc8383610f04565b50505050565b6001600160a01b03811633146103fb5760405163334bd91960e11b815260040160405180910390fd5b6104058282610fa5565b505050565b5f61041481610ef7565b50600255565b5f61042361101e565b805490915060ff600160401b820416159067ffffffffffffffff165f8115801561044a5750825b90505f8267ffffffffffffffff1660011480156104665750303b155b905081158015610474575080155b156104925760405163f92ee8a960e01b815260040160405180910390fd5b845467ffffffffffffffff1916600117855583156104bc57845460ff60401b1916600160401b1785555b6104c4611046565b6104ce5f88610f04565b505f80546001600160a01b0319166001600160a01b03881617905562278d0060015562093a80600255831561053d57845460ff60401b19168555604051600181527fc7f505b2f371ae2175ee4913f4499e1f2633a7b5936321eed1cdaeb6115181d29060200160405180910390a15b50505050505050565b61054e611050565b610557826110f4565b61056182826110fe565b5050565b5f61056e6111bf565b505f516020611fa45f395f51905f5290565b5f9182525f516020611fc45f395f51905f52602090815260408084206001600160a01b0393909316845291905290205460ff1690565b5f6105c18484611208565b5f8054604051929350909163197a393d60e21b916105f19133916001600160a01b031690869088906024016118b0565b60408051601f19818403018152918152602080830180516001600160e01b03166001600160e01b0319909516949094179093525f80548251632448463960e01b8152925193955090936001600160a01b039091169263244846399260048082019392918290030181865afa15801561066b573d5f5f3e3d5ffd5b505050506040513d601f19601f8201168201806040525081019061068f91906118ed565b8260405161069c90611620565b6106a7929190611908565b604051809103905ff0801580156106c0573d5f5f3e3d5ffd5b5090505f816001600160a01b0316633d2fa2d26040518163ffffffff1660e01b8152600401602060405180830381865afa158015610700573d5f5f3e3d5ffd5b505050506040513d601f19601f8201168201806040525081019061072491906118ed565b60405163680eeb6960e11b81526001600160a01b038083166004830152600160248301529192509085169063d01dd6d2906044015f604051808303815f87803b15801561076f575f5ffd5b505af1158015610781573d5f5f3e3d5ffd5b505050505f5f9054906101000a90046001600160a01b03166001600160a01b0316639ff78c306040518163ffffffff1660e01b8152600401602060405180830381865afa1580156107d4573d5f5f3e3d5ffd5b505050506040513d601f19601f820116820180604052508101906107f891906118ed565b604051633336acd360e01b81526001600160a01b0384811660048301529190911690633336acd3906024015f604051808303815f87803b15801561083a575f5ffd5b505af115801561084c573d5f5f3e3d5ffd5b5050604051632f2ff15d60e01b81527f22435ed027edf5f902dc0093fbc24cdb50c05b5fd5f311b78c67c1cbaff60e1360048201526001600160a01b03858116602483015287169250632f2ff15d91506044015f604051808303815f87803b1580156108b6575f5ffd5b505af11580156108c8573d5f5f3e3d5ffd5b50506040516335313c2160e11b81526001600160a01b03858116600483015287169250636a62784291506024015f604051808303815f87803b15801561090c575f5ffd5b505af115801561091e573d5f5f3e3d5ffd5b505050505f5f9054906101000a90046001600160a01b03166001600160a01b0316639ff78c306040518163ffffffff1660e01b8152600401602060405180830381865afa158015610971573d5f5f3e3d5ffd5b505050506040513d601f19601f8201168201806040525081019061099591906118ed565b604080516001600160a01b03858116602083015287811692820192909252838216606082015233608082015291169063befb8d3d9060059060a0016040516020818303038152906040526040518363ffffffff1660e01b81526004016109fc929190611933565b5f604051808303815f87803b158015610a13575f5ffd5b505af1158015610a25573d5f5f3e3d5ffd5b5050505050505050505050565b5f60025442610a419190611967565b90505f610a4e8585611208565b5f80546040519293509091637e19275f60e01b91610a809133916001600160a01b031690869089908990602401611986565b60408051601f19818403018152918152602080830180516001600160e01b03166001600160e01b0319909516949094179093525f805482516301538e6360e51b8152925193955090936001600160a01b0390911692632a71cc609260048082019392918290030181865afa158015610afa573d5f5f3e3d5ffd5b505050506040513d601f19601f82011682018060405250810190610b1e91906118ed565b82604051610b2b90611620565b610b36929190611908565b604051809103905ff080158015610b4f573d5f5f3e3d5ffd5b506040516335313c2160e11b81526001600160a01b03808316600483015291925090841690636a627842906024015f604051808303815f87803b158015610b94575f5ffd5b505af1158015610ba6573d5f5f3e3d5ffd5b505050505f816001600160a01b0316633d2fa2d26040518163ffffffff1660e01b8152600401602060405180830381865afa158015610be7573d5f5f3e3d5ffd5b505050506040513d601f19601f82011682018060405250810190610c0b91906118ed565b60405163680eeb6960e11b81526001600160a01b038083166004830152600160248301529192509085169063d01dd6d2906044015f604051808303815f87803b158015610c56575f5ffd5b505af1158015610c68573d5f5f3e3d5ffd5b505050505f5f9054906101000a90046001600160a01b03166001600160a01b0316639ff78c306040518163ffffffff1660e01b8152600401602060405180830381865afa158015610cbb573d5f5f3e3d5ffd5b505050506040513d601f19601f82011682018060405250810190610cdf91906118ed565b604051633336acd360e01b81526001600160a01b0384811660048301529190911690633336acd3906024015f604051808303815f87803b158015610d21575f5ffd5b505af1158015610d33573d5f5f3e3d5ffd5b5050604051632f2ff15d60e01b81527f22435ed027edf5f902dc0093fbc24cdb50c05b5fd5f311b78c67c1cbaff60e1360048201526001600160a01b03858116602483015287169250632f2ff15d91506044015f604051808303815f87803b158015610d9d575f5ffd5b505af1158015610daf573d5f5f3e3d5ffd5b505050505f5f9054906101000a90046001600160a01b03166001600160a01b0316639ff78c306040518163ffffffff1660e01b8152600401602060405180830381865afa158015610e02573d5f5f3e3d5ffd5b505050506040513d601f19601f82011682018060405250810190610e2691906118ed565b604080516001600160a01b038581166020830152878116928201929092528382166060820152608081018890523360a082015291169063befb8d3d9060019060c0016040516020818303038152906040526040518363ffffffff1660e01b8152600401610e94929190611933565b5f604051808303815f87803b158015610eab575f5ffd5b505af1158015610ebd573d5f5f3e3d5ffd5b505050505050505050505050565b610ed482610390565b610edd81610ef7565b6103cc8383610fa5565b5f610ef181610ef7565b50600155565b610f0181336113d9565b50565b5f5f516020611fc45f395f51905f52610f1d8484610580565b610f9c575f848152602082815260408083206001600160a01b03871684529091529020805460ff19166001179055610f523390565b6001600160a01b0316836001600160a01b0316857f2f8788117e7eff1d82e926ec794901d17c78024a50270940304540a733656f0d60405160405180910390a4600191505061038a565b5f91505061038a565b5f5f516020611fc45f395f51905f52610fbe8484610580565b15610f9c575f848152602082815260408083206001600160a01b0387168085529252808320805460ff1916905551339287917ff6391f5c32d9c69d2a47ea670b442974b53935d1edc7fd64eb21e047a839171b9190a4600191505061038a565b5f807ff0c57e16840df040f15088dc2f81fe391c3923bec73e23a9662efc9c229c6a0061038a565b61104e611412565b565b306001600160a01b037f00000000000000000000000000000000000000000000000000000000000000001614806110d657507f00000000000000000000000000000000000000000000000000000000000000006001600160a01b03166110ca5f516020611fa45f395f51905f52546001600160a01b031690565b6001600160a01b031614155b1561104e5760405163703e46dd60e11b815260040160405180910390fd5b5f61056181610ef7565b816001600160a01b03166352d1902d6040518163ffffffff1660e01b8152600401602060405180830381865afa925050508015611158575060408051601f3d908101601f19168201909252611155918101906119cb565b60015b61118557604051634c9c8ce360e01b81526001600160a01b03831660048201526024015b60405180910390fd5b5f516020611fa45f395f51905f5281146111b557604051632a87526960e21b81526004810182905260240161117c565b6104058383611437565b306001600160a01b037f0000000000000000000000000000000000000000000000000000000000000000161461104e5760405163703e46dd60e11b815260040160405180910390fd5b5f80546040518291639065714760e01b91611233916001600160a01b031690879087906024016119e2565b60408051601f19818403018152918152602080830180516001600160e01b03166001600160e01b0319909516949094179093525f8054825163333d69df60e21b8152925193955090936001600160a01b039091169263ccf5a77c9260048082019392918290030181865afa1580156112ad573d5f5f3e3d5ffd5b505050506040513d601f19601f820116820180604052508101906112d191906118ed565b826040516112de90611620565b6112e9929190611908565b604051809103905ff080158015611302573d5f5f3e3d5ffd5b5090505f5f9054906101000a90046001600160a01b03166001600160a01b0316639ff78c306040518163ffffffff1660e01b8152600401602060405180830381865afa158015611354573d5f5f3e3d5ffd5b505050506040513d601f19601f8201168201806040525081019061137891906118ed565b604051633336acd360e01b81526001600160a01b0383811660048301529190911690633336acd3906024015f604051808303815f87803b1580156113ba575f5ffd5b505af11580156113cc573d5f5f3e3d5ffd5b5092979650505050505050565b6113e38282610580565b6105615760405163e2517d3f60e01b81526001600160a01b03821660048201526024810183905260440161117c565b61141a61148c565b61104e57604051631afcd79f60e31b815260040160405180910390fd5b611440826114a5565b6040516001600160a01b038316907fbc7cd75a20ee27fd9adebab32041f755214dbc6bffa90cc0225b39da2e5c2d3b905f90a2805115611484576104058282611508565b61056161157a565b5f61149561101e565b54600160401b900460ff16919050565b806001600160a01b03163b5f036114da57604051634c9c8ce360e01b81526001600160a01b038216600482015260240161117c565b5f516020611fa45f395f51905f5280546001600160a01b0319166001600160a01b0392909216919091179055565b60605f5f846001600160a01b0316846040516115249190611a17565b5f60405180830381855af49150503d805f811461155c576040519150601f19603f3d011682016040523d82523d5f602084013e611561565b606091505b5091509150611571858383611599565b95945050505050565b341561104e5760405163b398979f60e01b815260040160405180910390fd5b6060826115ae576115a9826115f8565b6115f1565b81511580156115c557506001600160a01b0384163b155b156115ee57604051639996b31560e01b81526001600160a01b038516600482015260240161117c565b50805b9392505050565b80511561160757805160208201fd5b60405163d6bda27560e01b815260040160405180910390fd5b61057680611a2e83390190565b5f6020828403121561163d575f5ffd5b81356001600160e01b0319811681146115f1575f5ffd5b5f60208284031215611664575f5ffd5b5035919050565b6001600160a01b0381168114610f01575f5ffd5b5f5f60408385031215611690575f5ffd5b8235915060208301356116a28161166b565b809150509250929050565b5f5f604083850312156116be575f5ffd5b82356116c98161166b565b915060208301356116a28161166b565b634e487b7160e01b5f52604160045260245ffd5b5f5f67ffffffffffffffff841115611707576117076116d9565b50604051601f19601f85018116603f0116810181811067ffffffffffffffff82111715611736576117366116d9565b60405283815290508082840185101561174d575f5ffd5b838360208301375f60208583010152509392505050565b5f5f60408385031215611775575f5ffd5b82356117808161166b565b9150602083013567ffffffffffffffff81111561179b575f5ffd5b8301601f810185136117ab575f5ffd5b6117ba858235602084016116ed565b9150509250929050565b5f82601f8301126117d3575f5ffd5b6115f1838335602085016116ed565b5f5f5f606084860312156117f4575f5ffd5b833567ffffffffffffffff81111561180a575f5ffd5b611816868287016117c4565b935050602084013567ffffffffffffffff811115611832575f5ffd5b61183e868287016117c4565b925050604084013567ffffffffffffffff81111561185a575f5ffd5b611866868287016117c4565b9150509250925092565b5f81518084528060208401602086015e5f602082860101526020601f19601f83011685010191505092915050565b602081525f6115f16020830184611870565b6001600160a01b0385811682528481166020830152831660408201526080606082018190525f906118e390830184611870565b9695505050505050565b5f602082840312156118fd575f5ffd5b81516115f18161166b565b6001600160a01b03831681526040602082018190525f9061192b90830184611870565b949350505050565b5f600d841061195057634e487b7160e01b5f52602160045260245ffd5b8382526040602083015261192b6040830184611870565b8082018082111561038a57634e487b7160e01b5f52601160045260245ffd5b6001600160a01b03868116825285811660208301528416604082015260a0606082018190525f906119b990830185611870565b90508260808301529695505050505050565b5f602082840312156119db575f5ffd5b5051919050565b6001600160a01b03841681526060602082018190525f90611a0590830185611870565b82810360408401526118e38185611870565b5f82518060208501845e5f92019182525091905056fe60a060405260405161057638038061057683398101604081905261002291610353565b61002c828261003e565b506001600160a01b0316608052610444565b610047826100fb565b6040516001600160a01b038316907f1cf3b03a6cf19fa2baba4df148e9dcabedea7f8a5c07840e207e5c089be95d3e905f90a28051156100ef576100ea826001600160a01b0316635c60da1b6040518163ffffffff1660e01b8152600401602060405180830381865afa1580156100c0573d5f5f3e3d5ffd5b505050506040513d601f19601f820116820180604052508101906100e49190610415565b82610209565b505050565b6100f761027c565b5050565b806001600160a01b03163b5f0361013557604051631933b43b60e21b81526001600160a01b03821660048201526024015b60405180910390fd5b807fa3f0ad74e5423aebfd80d3ef4346578335a9a72aeaee59ff6cb3582b35133d5080546001600160a01b0319166001600160a01b0392831617905560408051635c60da1b60e01b815290515f92841691635c60da1b9160048083019260209291908290030181865afa1580156101ae573d5f5f3e3d5ffd5b505050506040513d601f19601f820116820180604052508101906101d29190610415565b9050806001600160a01b03163b5f036100f757604051634c9c8ce360e01b81526001600160a01b038216600482015260240161012c565b60605f5f846001600160a01b031684604051610225919061042e565b5f60405180830381855af49150503d805f811461025d576040519150601f19603f3d011682016040523d82523d5f602084013e610262565b606091505b50909250905061027385838361029d565b95945050505050565b341561029b5760405163b398979f60e01b815260040160405180910390fd5b565b6060826102b2576102ad826102fc565b6102f5565b81511580156102c957506001600160a01b0384163b155b156102f257604051639996b31560e01b81526001600160a01b038516600482015260240161012c565b50805b9392505050565b80511561030b57805160208201fd5b60405163d6bda27560e01b815260040160405180910390fd5b80516001600160a01b038116811461033a575f5ffd5b919050565b634e487b7160e01b5f52604160045260245ffd5b5f5f60408385031215610364575f5ffd5b61036d83610324565b60208401519092506001600160401b03811115610388575f5ffd5b8301601f81018513610398575f5ffd5b80516001600160401b038111156103b1576103b161033f565b604051601f8201601f19908116603f011681016001600160401b03811182821017156103df576103df61033f565b6040528181528282016020018710156103f6575f5ffd5b8160208401602083015e5f602083830101528093505050509250929050565b5f60208284031215610425575f5ffd5b6102f582610324565b5f82518060208501845e5f920191825250919050565b60805161011b61045b5f395f601d015261011b5ff3fe6080604052600a600c565b005b60186014601a565b609d565b565b5f7f00000000000000000000000000000000000000000000000000000000000000006001600160a01b0316635c60da1b6040518163ffffffff1660e01b8152600401602060405180830381865afa1580156076573d5f5f3e3d5ffd5b505050506040513d601f19601f820116820180604052508101906098919060ba565b905090565b365f5f375f5f365f845af43d5f5f3e80801560b6573d5ff35b3d5ffd5b5f6020828403121560c9575f5ffd5b81516001600160a01b038116811460de575f5ffd5b939250505056fea264697066735822122034ac68ad3cd114ac71a7eca3626c1f349e7923ff065ad96de76737f1c9321e6864736f6c634300081c0033360894a13ba1a3210667c828492db98dca3e2076cc3735a920a3ca505d382bbc02dd7bc7dec4dceedda775e58dd541e08a116c6c53815c0bd028192f7b626800a2646970667358221220606c1d106634d8f976e8b36dc17077c73b9053c85011f7eaac9afbe374b5b7e264736f6c634300081c0033",
  "linkReferences": {},
  "deployedLinkReferences": {},
  "immutableReferences": {
    "1518": [
      {
        "length": 32,
        "start": 4187
      },
      {
        "length": 32,
        "start": 4228
      },
      {
        "length": 32,
        "start": 4554
      }
    ]
  },
  "inputSourceName": "project/contracts/AweFactory.sol",
  "buildInfoId": "solc-0_8_28-6199f7bda2b764aca289a3ead84a8f9c15f56c8c"
}