{
  "_format": "hh3-artifact-1",
  "contractName": "EventEmitter",
  "sourceName": "contracts/EventEmitter.sol",
  "abi": [
    {
      "inputs": [],
      "stateMutability": "nonpayable",
      "type": "constructor"
    },
    {
      "inputs": [],
      "name": "AccessControlBadConfirmation",
      "type": "error"
    },
    {
      "inputs": [
        {
          "internalType": "address",
          "name": "account",
          "type": "address"
        },
        {
          "internalType": "bytes32",
          "name": "neededRole",
          "type": "bytes32"
        }
      ],
      "name": "AccessControlUnauthorizedAccount",
      "type": "error"
    },
    {
      "inputs": [
        {
          "internalType": "address",
          "name": "target",
          "type": "address"
        }
      ],
      "name": "AddressEmptyCode",
      "type": "error"
    },
    {
      "inputs": [],
      "name": "Blacklisted",
      "type": "error"
    },
    {
      "inputs": [
        {
          "internalType": "address",
          "name": "implementation",
          "type": "address"
        }
      ],
      "name": "ERC1967InvalidImplementation",
      "type": "error"
    },
    {
      "inputs": [],
      "name": "ERC1967NonPayable",
      "type": "error"
    },
    {
      "inputs": [],
      "name": "FailedCall",
      "type": "error"
    },
    {
      "inputs": [],
      "name": "InvalidInitialization",
      "type": "error"
    },
    {
      "inputs": [],
      "name": "NotInitializing",
      "type": "error"
    },
    {
      "inputs": [],
      "name": "NotPublisherAdmin",
      "type": "error"
    },
    {
      "inputs": [],
      "name": "NotRegistered",
      "type": "error"
    },
    {
      "inputs": [],
      "name": "NotVesting",
      "type": "error"
    },
    {
      "inputs": [],
      "name": "UUPSUnauthorizedCallContext",
      "type": "error"
    },
    {
      "inputs": [
        {
          "internalType": "bytes32",
          "name": "slot",
          "type": "bytes32"
        }
      ],
      "name": "UUPSUnsupportedProxiableUUID",
      "type": "error"
    },
    {
      "anonymous": false,
      "inputs": [
        {
          "indexed": true,
          "internalType": "address",
          "name": "pool",
          "type": "address"
        },
        {
          "indexed": true,
          "internalType": "address",
          "name": "from",
          "type": "address"
        },
        {
          "indexed": false,
          "internalType": "uint256",
          "name": "aweIn",
          "type": "uint256"
        },
        {
          "indexed": false,
          "internalType": "uint256",
          "name": "tokenOut",
          "type": "uint256"
        },
        {
          "indexed": false,
          "internalType": "uint256",
          "name": "aweFee",
          "type": "uint256"
        }
      ],
      "name": "BondingCurveBuy",
      "type": "event"
    },
    {
      "anonymous": false,
      "inputs": [
        {
          "indexed": false,
          "internalType": "address",
          "name": "pool",
          "type": "address"
        },
        {
          "indexed": false,
          "internalType": "address",
          "name": "token",
          "type": "address"
        },
        {
          "indexed": false,
          "internalType": "address",
          "name": "lpAddress",
          "type": "address"
        },
        {
          "indexed": false,
          "internalType": "address",
          "name": "creator",
          "type": "address"
        }
      ],
      "name": "BondingCurveCreated",
      "type": "event"
    },
    {
      "anonymous": false,
      "inputs": [
        {
          "indexed": true,
          "internalType": "address",
          "name": "pool",
          "type": "address"
        },
        {
          "indexed": true,
          "internalType": "address",
          "name": "from",
          "type": "address"
        },
        {
          "indexed": false,
          "internalType": "uint256",
          "name": "tokenIn",
          "type": "uint256"
        },
        {
          "indexed": false,
          "internalType": "uint256",
          "name": "aweOut",
          "type": "uint256"
        },
        {
          "indexed": false,
          "internalType": "uint256",
          "name": "aweFee",
          "type": "uint256"
        }
      ],
      "name": "BondingCurveSell",
      "type": "event"
    },
    {
      "anonymous": false,
      "inputs": [
        {
          "indexed": true,
          "internalType": "address",
          "name": "pool",
          "type": "address"
        },
        {
          "indexed": true,
          "internalType": "address",
          "name": "user",
          "type": "address"
        },
        {
          "indexed": false,
          "internalType": "uint256",
          "name": "tokenAmount",
          "type": "uint256"
        },
        {
          "indexed": false,
          "internalType": "uint256",
          "name": "totalContributed",
          "type": "uint256"
        }
      ],
      "name": "DaoClaimed",
      "type": "event"
    },
    {
      "anonymous": false,
      "inputs": [
        {
          "indexed": true,
          "internalType": "address",
          "name": "pool",
          "type": "address"
        },
        {
          "indexed": true,
          "internalType": "address",
          "name": "from",
          "type": "address"
        },
        {
          "indexed": false,
          "internalType": "uint256",
          "name": "amount",
          "type": "uint256"
        }
      ],
      "name": "DaoContributed",
      "type": "event"
    },
    {
      "anonymous": false,
      "inputs": [
        {
          "indexed": false,
          "internalType": "address",
          "name": "pool",
          "type": "address"
        },
        {
          "indexed": false,
          "internalType": "address",
          "name": "token",
          "type": "address"
        },
        {
          "indexed": false,
          "internalType": "address",
          "name": "lpAddress",
          "type": "address"
        },
        {
          "indexed": false,
          "internalType": "uint256",
          "name": "endTime",
          "type": "uint256"
        },
        {
          "indexed": false,
          "internalType": "address",
          "name": "creator",
          "type": "address"
        }
      ],
      "name": "DaoCreated",
      "type": "event"
    },
    {
      "anonymous": false,
      "inputs": [
        {
          "indexed": true,
          "internalType": "address",
          "name": "pool",
          "type": "address"
        },
        {
          "indexed": true,
          "internalType": "address",
          "name": "from",
          "type": "address"
        },
        {
          "indexed": false,
          "internalType": "uint256",
          "name": "amount",
          "type": "uint256"
        }
      ],
      "name": "DaoRefunded",
      "type": "event"
    },
    {
      "anonymous": false,
      "inputs": [
        {
          "indexed": false,
          "internalType": "uint64",
          "name": "version",
          "type": "uint64"
        }
      ],
      "name": "Initialized",
      "type": "event"
    },
    {
      "anonymous": false,
      "inputs": [
        {
          "indexed": false,
          "internalType": "address",
          "name": "pool",
          "type": "address"
        },
        {
          "indexed": false,
          "internalType": "uint256",
          "name": "tokenAmount",
          "type": "uint256"
        },
        {
          "indexed": false,
          "internalType": "uint256",
          "name": "aweAmount",
          "type": "uint256"
        }
      ],
      "name": "PoolCreatorRewardClaimed",
      "type": "event"
    },
    {
      "anonymous": false,
      "inputs": [
        {
          "indexed": false,
          "internalType": "address",
          "name": "pool",
          "type": "address"
        },
        {
          "indexed": false,
          "internalType": "uint256",
          "name": "dexNftId",
          "type": "uint256"
        }
      ],
      "name": "PoolGraduated",
      "type": "event"
    },
    {
      "anonymous": false,
      "inputs": [
        {
          "indexed": true,
          "internalType": "bytes32",
          "name": "role",
          "type": "bytes32"
        },
        {
          "indexed": true,
          "internalType": "bytes32",
          "name": "previousAdminRole",
          "type": "bytes32"
        },
        {
          "indexed": true,
          "internalType": "bytes32",
          "name": "newAdminRole",
          "type": "bytes32"
        }
      ],
      "name": "RoleAdminChanged",
      "type": "event"
    },
    {
      "anonymous": false,
      "inputs": [
        {
          "indexed": true,
          "internalType": "bytes32",
          "name": "role",
          "type": "bytes32"
        },
        {
          "indexed": true,
          "internalType": "address",
          "name": "account",
          "type": "address"
        },
        {
          "indexed": true,
          "internalType": "address",
          "name": "sender",
          "type": "address"
        }
      ],
      "name": "RoleGranted",
      "type": "event"
    },
    {
      "anonymous": false,
      "inputs": [
        {
          "indexed": true,
          "internalType": "bytes32",
          "name": "role",
          "type": "bytes32"
        },
        {
          "indexed": true,
          "internalType": "address",
          "name": "account",
          "type": "address"
        },
        {
          "indexed": true,
          "internalType": "address",
          "name": "sender",
          "type": "address"
        }
      ],
      "name": "RoleRevoked",
      "type": "event"
    },
    {
      "anonymous": false,
      "inputs": [
        {
          "indexed": true,
          "internalType": "address",
          "name": "token",
          "type": "address"
        },
        {
          "indexed": true,
          "internalType": "address",
          "name": "account",
          "type": "address"
        },
        {
          "indexed": false,
          "internalType": "bool",
          "name": "isBlacklisted",
          "type": "bool"
        }
      ],
      "name": "TokenBlacklisted",
      "type": "event"
    },
    {
      "anonymous": false,
      "inputs": [
        {
          "indexed": true,
          "internalType": "address",
          "name": "token",
          "type": "address"
        },
        {
          "indexed": true,
          "internalType": "address",
          "name": "from",
          "type": "address"
        },
        {
          "indexed": true,
          "internalType": "address",
          "name": "to",
          "type": "address"
        },
        {
          "indexed": false,
          "internalType": "uint256",
          "name": "value",
          "type": "uint256"
        }
      ],
      "name": "TokenTransferred",
      "type": "event"
    },
    {
      "anonymous": false,
      "inputs": [
        {
          "indexed": true,
          "internalType": "address",
          "name": "implementation",
          "type": "address"
        }
      ],
      "name": "Upgraded",
      "type": "event"
    },
    {
      "anonymous": false,
      "inputs": [
        {
          "indexed": true,
          "internalType": "address",
          "name": "pool",
          "type": "address"
        },
        {
          "indexed": true,
          "internalType": "address",
          "name": "user",
          "type": "address"
        },
        {
          "indexed": false,
          "internalType": "uint256",
          "name": "amount",
          "type": "uint256"
        }
      ],
      "name": "VestingClaimed",
      "type": "event"
    },
    {
      "anonymous": false,
      "inputs": [
        {
          "indexed": true,
          "internalType": "address",
          "name": "pool",
          "type": "address"
        },
        {
          "indexed": true,
          "internalType": "address",
          "name": "from",
          "type": "address"
        },
        {
          "indexed": false,
          "internalType": "uint256",
          "name": "amount",
          "type": "uint256"
        }
      ],
      "name": "VestingFunded",
      "type": "event"
    },
    {
      "anonymous": false,
      "inputs": [
        {
          "indexed": true,
          "internalType": "address",
          "name": "pool",
          "type": "address"
        },
        {
          "indexed": false,
          "internalType": "uint256",
          "name": "date",
          "type": "uint256"
        },
        {
          "indexed": false,
          "internalType": "uint256",
          "name": "endDate",
          "type": "uint256"
        },
        {
          "indexed": false,
          "internalType": "uint256",
          "name": "unlockPercent",
          "type": "uint256"
        },
        {
          "indexed": false,
          "internalType": "uint256",
          "name": "period",
          "type": "uint256"
        }
      ],
      "name": "VestingScheduled",
      "type": "event"
    },
    {
      "inputs": [],
      "name": "DEFAULT_ADMIN_ROLE",
      "outputs": [
        {
          "internalType": "bytes32",
          "name": "",
          "type": "bytes32"
        }
      ],
      "stateMutability": "view",
      "type": "function"
    },
    {
      "inputs": [],
      "name": "PUBLISHER_ADMIN_ROLE",
      "outputs": [
        {
          "internalType": "bytes32",
          "name": "",
          "type": "bytes32"
        }
      ],
      "stateMutability": "view",
      "type": "function"
    },
    {
      "inputs": [],
      "name": "PUBLISHER_ROLE",
      "outputs": [
        {
          "internalType": "bytes32",
          "name": "",
          "type": "bytes32"
        }
      ],
      "stateMutability": "view",
      "type": "function"
    },
    {
      "inputs": [],
      "name": "UPGRADE_INTERFACE_VERSION",
      "outputs": [
        {
          "internalType": "string",
          "name": "",
          "type": "string"
        }
      ],
      "stateMutability": "view",
      "type": "function"
    },
    {
      "inputs": [],
      "name": "addHandler",
      "outputs": [],
      "stateMutability": "nonpayable",
      "type": "function"
    },
    {
      "inputs": [],
      "name": "addressManager",
      "outputs": [
        {
          "internalType": "contract IAddressManager",
          "name": "",
          "type": "address"
        }
      ],
      "stateMutability": "view",
      "type": "function"
    },
    {
      "inputs": [
        {
          "internalType": "enum EventType",
          "name": "eventType",
          "type": "uint8"
        },
        {
          "internalType": "bytes",
          "name": "data",
          "type": "bytes"
        }
      ],
      "name": "emitEvent",
      "outputs": [],
      "stateMutability": "nonpayable",
      "type": "function"
    },
    {
      "inputs": [
        {
          "internalType": "bytes32",
          "name": "role",
          "type": "bytes32"
        }
      ],
      "name": "getRoleAdmin",
      "outputs": [
        {
          "internalType": "bytes32",
          "name": "",
          "type": "bytes32"
        }
      ],
      "stateMutability": "view",
      "type": "function"
    },
    {
      "inputs": [
        {
          "internalType": "bytes32",
          "name": "role",
          "type": "bytes32"
        },
        {
          "internalType": "address",
          "name": "account",
          "type": "address"
        }
      ],
      "name": "grantRole",
      "outputs": [],
      "stateMutability": "nonpayable",
      "type": "function"
    },
    {
      "inputs": [
        {
          "internalType": "bytes32",
          "name": "role",
          "type": "bytes32"
        },
        {
          "internalType": "address",
          "name": "account",
          "type": "address"
        }
      ],
      "name": "hasRole",
      "outputs": [
        {
          "internalType": "bool",
          "name": "",
          "type": "bool"
        }
      ],
      "stateMutability": "view",
      "type": "function"
    },
    {
      "inputs": [
        {
          "internalType": "address",
          "name": "owner_",
          "type": "address"
        },
        {
          "internalType": "address",
          "name": "addressManager_",
          "type": "address"
        }
      ],
      "name": "initialize",
      "outputs": [],
      "stateMutability": "nonpayable",
      "type": "function"
    },
    {
      "inputs": [],
      "name": "proxiableUUID",
      "outputs": [
        {
          "internalType": "bytes32",
          "name": "",
          "type": "bytes32"
        }
      ],
      "stateMutability": "view",
      "type": "function"
    },
    {
      "inputs": [
        {
          "internalType": "address",
          "name": "publisher",
          "type": "address"
        }
      ],
      "name": "registerPublisher",
      "outputs": [],
      "stateMutability": "nonpayable",
      "type": "function"
    },
    {
      "inputs": [
        {
          "internalType": "bytes32",
          "name": "role",
          "type": "bytes32"
        },
        {
          "internalType": "address",
          "name": "callerConfirmation",
          "type": "address"
        }
      ],
      "name": "renounceRole",
      "outputs": [],
      "stateMutability": "nonpayable",
      "type": "function"
    },
    {
      "inputs": [
        {
          "internalType": "bytes32",
          "name": "role",
          "type": "bytes32"
        },
        {
          "internalType": "address",
          "name": "account",
          "type": "address"
        }
      ],
      "name": "revokeRole",
      "outputs": [],
      "stateMutability": "nonpayable",
      "type": "function"
    },
    {
      "inputs": [
        {
          "internalType": "address",
          "name": "admin",
          "type": "address"
        },
        {
          "internalType": "bool",
          "name": "isAdmin",
          "type": "bool"
        }
      ],
      "name": "setPublisherAdmin",
      "outputs": [],
      "stateMutability": "nonpayable",
      "type": "function"
    },
    {
      "inputs": [
        {
          "internalType": "bytes4",
          "name": "interfaceId",
          "type": "bytes4"
        }
      ],
      "name": "supportsInterface",
      "outputs": [
        {
          "internalType": "bool",
          "name": "",
          "type": "bool"
        }
      ],
      "stateMutability": "view",
      "type": "function"
    },
    {
      "inputs": [
        {
          "internalType": "address",
          "name": "publisher",
          "type": "address"
        }
      ],
      "name": "unregisterPublisher",
      "outputs": [],
      "stateMutability": "nonpayable",
      "type": "function"
    },
    {
      "inputs": [
        {
          "internalType": "address",
          "name": "newImplementation",
          "type": "address"
        },
        {
          "internalType": "bytes",
          "name": "data",
          "type": "bytes"
        }
      ],
      "name": "upgradeToAndCall",
      "outputs": [],
      "stateMutability": "payable",
      "type": "function"
    }
  ],
  "bytecode": "0x60a060405230608052348015610013575f5ffd5b5061001c610021565b6100d3565b7ff0c57e16840df040f15088dc2f81fe391c3923bec73e23a9662efc9c229c6a00805468010000000000000000900460ff16156100715760405163f92ee8a960e01b815260040160405180910390fd5b80546001600160401b03908116146100d05780546001600160401b0319166001600160401b0390811782556040519081527fc7f505b2f371ae2175ee4913f4499e1f2633a7b5936321eed1cdaeb6115181d29060200160405180910390a15b50565b608051611dc46100f95f395f8181610d7201528181610d9b0152610ee10152611dc45ff3fe608060405260043610610110575f3560e01c80634f1ef2861161009d578063a217fddf11610062578063a217fddf146102e1578063ad3cb1cc146102f4578063befb8d3d14610331578063d547741f14610350578063d8f4b6fd1461036f575f5ffd5b80634f1ef2861461025c57806352d1902d1461026f5780638e2c14271461028357806391d14854146102a35780639d277a49146102c2575f5ffd5b80632f2ff15d116100e35780632f2ff15d146101aa5780633336acd3146101c957806336568abe146101e85780633ab76e9f14610207578063485cc9551461023d575f5ffd5b806301ffc9a7146101145780630b72f6c2146101485780630c1c5c631461015e578063248a9ca31461017d575b5f5ffd5b34801561011f575f5ffd5b5061013361012e36600461184f565b61038f565b60405190151581526020015b60405180910390f35b348015610153575f5ffd5b5061015c6103c5565b005b348015610169575f5ffd5b5061015c610178366004611897565b610403565b348015610188575f5ffd5b5061019c6101973660046118ce565b610446565b60405190815260200161013f565b3480156101b5575f5ffd5b5061015c6101c43660046118e5565b610466565b3480156101d4575f5ffd5b5061015c6101e3366004611908565b610488565b3480156101f3575f5ffd5b5061015c6102023660046118e5565b6104d6565b348015610212575f5ffd5b505f54610225906001600160a01b031681565b6040516001600160a01b03909116815260200161013f565b348015610248575f5ffd5b5061015c610257366004611923565b610509565b61015c61026a3660046119ec565b610669565b34801561027a575f5ffd5b5061019c610688565b34801561028e575f5ffd5b5061019c5f516020611d4f5f395f51905f5281565b3480156102ae575f5ffd5b506101336102bd3660046118e5565b6106a3565b3480156102cd575f5ffd5b5061015c6102dc366004611908565b6106d9565b3480156102ec575f5ffd5b5061019c5f81565b3480156102ff575f5ffd5b50610324604051806040016040528060058152602001640352e302e360dc1b81525081565b60405161013f9190611a38565b34801561033c575f5ffd5b5061015c61034b366004611a6d565b610724565b34801561035b575f5ffd5b5061015c61036a3660046118e5565b6107b7565b34801561037a575f5ffd5b5061019c5f516020611d2f5f395f51905f5281565b5f6001600160e01b03198216637965db0b60e01b14806103bf57506301ffc9a760e01b6001600160e01b03198316145b92915050565b6103dc5f516020611d4f5f395f51905f52336106a3565b6103f95760405163e0bd792360e01b815260040160405180910390fd5b6104016107d3565b565b5f61040d81610bb3565b811561042f5761042a5f516020611d4f5f395f51905f5284610466565b505050565b61042a5f516020611d4f5f395f51905f52846107b7565b5f9081525f516020611d6f5f395f51905f52602052604090206001015490565b61046f82610446565b61047881610bb3565b6104828383610bbd565b50505050565b61049f5f516020611d4f5f395f51905f52336106a3565b6104bc5760405163e0bd792360e01b815260040160405180910390fd5b6104d35f516020611d2f5f395f51905f5282610466565b50565b6001600160a01b03811633146104ff5760405163334bd91960e11b815260040160405180910390fd5b61042a8282610c5e565b5f610512610cd7565b805490915060ff600160401b82041615906001600160401b03165f811580156105385750825b90505f826001600160401b031660011480156105535750303b155b905081158015610561575080155b1561057f5760405163f92ee8a960e01b815260040160405180910390fd5b845467ffffffffffffffff1916600117855583156105a957845460ff60401b1916600160401b1785555b6105b1610cff565b5f80546001600160a01b0319166001600160a01b0388161781556105d59088610bbd565b506105fa5f516020611d2f5f395f51905f525f516020611d4f5f395f51905f52610d07565b6106115f516020611d4f5f395f51905f5288610bbd565b5061061a6107d3565b831561066057845460ff60401b19168555604051600181527fc7f505b2f371ae2175ee4913f4499e1f2633a7b5936321eed1cdaeb6115181d29060200160405180910390a15b50505050505050565b610671610d67565b61067a82610e0b565b6106848282610e15565b5050565b5f610691610ed6565b505f516020611d0f5f395f51905f5290565b5f9182525f516020611d6f5f395f51905f52602090815260408084206001600160a01b0393909316845291905290205460ff1690565b6106f05f516020611d4f5f395f51905f52336106a3565b61070d5760405163e0bd792360e01b815260040160405180910390fd5b6104d35f516020611d2f5f395f51905f52826107b7565b61073b5f516020611d2f5f395f51905f52336106a3565b6107585760405163aba4733960e01b815260040160405180910390fd5b61184760015f84600c81111561077057610770611a8c565b600c81111561078157610781611a8c565b81526020019081526020015f205f9054906101000a9004801561184702176001600160401b0316905061042a828263ffffffff16565b6107c082610446565b6107c981610bb3565b6104828383610c5e565b600160208190527fa6eef7e35abe7026729641147f7915573c7e97b47efa546f5f6e3230263bcb49805467ffffffffffffffff19908116610f1f179091557fcc69885fda6bcc1a4ace058b4a62bf5e179ea78fd58a1ccd71c22cc9b688792f80548216610f741790557f4db623e5c4870b62d3fc9b4e8f893a1a77627d75ab45d9ff7e56ba19564af99b80548216610ffd179055600a5f9081527f2a32391a76c35a36352b711f9152c0d0a340cd686850c8ef25fbb11c71b89e7b8054909216611077179091556110f891906002600c8111156108b2576108b2611a8c565b81526020019081526020015f205f6101000a8154816001600160401b0302191690836001600160401b0316021790555061116460015f6003600c8111156108fb576108fb611a8c565b600c81111561090c5761090c611a8c565b81526020019081526020015f205f6101000a8154816001600160401b0302191690836001600160401b031602179055506111c360015f6006600c81111561095557610955611a8c565b600c81111561096657610966611a8c565b81526020019081526020015f205f6101000a8154816001600160401b0302191690836001600160401b0316021790555061123b60015f6007600c8111156109af576109af611a8c565b600c8111156109c0576109c0611a8c565b81526020019081526020015f205f6101000a8154816001600160401b0302191690836001600160401b031602179055506112a860015f6005600c811115610a0957610a09611a8c565b600c811115610a1a57610a1a611a8c565b81526020019081526020015f205f6101000a8154816001600160401b0302191690836001600160401b0316021790555061132660015f600b600c811115610a6357610a63611a8c565b600c811115610a7457610a74611a8c565b81526020019081526020015f205f6101000a8154816001600160401b0302191690836001600160401b0316021790555061142d60015f600c80811115610abc57610abc611a8c565b600c811115610acd57610acd611a8c565b81526020019081526020015f205f6101000a8154816001600160401b0302191690836001600160401b0316021790555061153460015f6009600c811115610b1657610b16611a8c565b600c811115610b2757610b27611a8c565b81526020019081526020015f205f6101000a8154816001600160401b0302191690836001600160401b0316021790555061159560015f6004600c811115610b7057610b70611a8c565b600c811115610b8157610b81611a8c565b81526020019081526020015f205f6101000a8154816001600160401b0302191690836001600160401b03160217905550565b6104d38133611600565b5f5f516020611d6f5f395f51905f52610bd684846106a3565b610c55575f848152602082815260408083206001600160a01b03871684529091529020805460ff19166001179055610c0b3390565b6001600160a01b0316836001600160a01b0316857f2f8788117e7eff1d82e926ec794901d17c78024a50270940304540a733656f0d60405160405180910390a460019150506103bf565b5f9150506103bf565b5f5f516020611d6f5f395f51905f52610c7784846106a3565b15610c55575f848152602082815260408083206001600160a01b0387168085529252808320805460ff1916905551339287917ff6391f5c32d9c69d2a47ea670b442974b53935d1edc7fd64eb21e047a839171b9190a460019150506103bf565b5f807ff0c57e16840df040f15088dc2f81fe391c3923bec73e23a9662efc9c229c6a006103bf565b610401611639565b5f516020611d6f5f395f51905f525f610d1f84610446565b5f85815260208490526040808220600101869055519192508491839187917fbd79b86ffe0ab8e8776151514217cd7cacd52c909f66475c3af44e129f0b00ff9190a450505050565b306001600160a01b037f0000000000000000000000000000000000000000000000000000000000000000161480610ded57507f00000000000000000000000000000000000000000000000000000000000000006001600160a01b0316610de15f516020611d0f5f395f51905f52546001600160a01b031690565b6001600160a01b031614155b156104015760405163703e46dd60e11b815260040160405180910390fd5b5f61068481610bb3565b816001600160a01b03166352d1902d6040518163ffffffff1660e01b8152600401602060405180830381865afa925050508015610e6f575060408051601f3d908101601f19168201909252610e6c91810190611aa0565b60015b610e9c57604051634c9c8ce360e01b81526001600160a01b03831660048201526024015b60405180910390fd5b5f516020611d0f5f395f51905f528114610ecc57604051632a87526960e21b815260048101829052602401610e93565b61042a838361165e565b306001600160a01b037f000000000000000000000000000000000000000000000000000000000000000016146104015760405163703e46dd60e11b815260040160405180910390fd5b5f81806020019051810190610f349190611aa0565b60408051338152602081018390529192507f9b2bbde5a2620fa226b4f17b024cd98c87f1528f1e8a9b2b5e0b820acbe2b80b910160405180910390a15050565b5f5f5f5f5f85806020019051810190610f8d9190611ab7565b604080516001600160a01b03878116825286811660208301528581168284015260608201859052831660808201529051959a50939850919650945092507f188a060b82979de096cad7807e80e2cd1b396e1a9057fde591abd5f9fb65ddff919081900360a00190a1505050505050565b5f5f5f838060200190518101906110149190611b1e565b925092509250816001600160a01b0316836001600160a01b0316336001600160a01b03167f9af266b6ca4909f988dc948fb50ad15153abbe525351881bad4fa858be96515c8460405161106991815260200190565b60405180910390a450505050565b5f5f5f5f5f858060200190518101906110909190611b5f565b604080518581526020810185905290810183905260608101829052949950929750909550935091506001600160a01b038616907f9e4cec1a840731c8ab1859162c59c2e439561d8eff126dc15191d31adb5d20959060800160405180910390a2505050505050565b5f5f8280602001905181019061110e9190611ba4565b91509150816001600160a01b0316336001600160a01b03167ff6d24a96a1206b2f75009efbb6892968ca87e81ba0471c40b7eeffab0a66555f8360405161115791815260200190565b60405180910390a3505050565b5f5f8280602001905181019061117a9190611ba4565b91509150816001600160a01b0316336001600160a01b03167fde2b0cbf6e92a0e3f2af27dbcd5d1fcacd2beadec97a344955895aee04eca2388360405161115791815260200190565b5f5f5f5f848060200190518101906111db9190611bd0565b6040805184815260208101849052908101829052939750919550935091506001600160a01b0385169033907f96f03ba38cf34a888c9af00a1124b321a439087ccec90b9b3a3cf3fa31886647906060015b60405180910390a35050505050565b5f5f5f5f848060200190518101906112539190611bd0565b6040805184815260208101849052908101829052939750919550935091506001600160a01b0385169033907f117fe24cd9e824bb9718b8cc1566f0e9bd1170df6c721ac6efc9aee51db67e8f9060600161122c565b5f5f5f5f848060200190518101906112c09190611c0c565b604080516001600160a01b03868116825285811660208301528481168284015283166060820152905194985092965090945092507f909d176dab7deadb77eba9ce4098399722e35c15df179ee9ebc150cb80adf0f7919081900360800190a15050505050565b33806001600160a01b03165f5f9054906101000a90046001600160a01b03166001600160a01b03166344c63eec6040518163ffffffff1660e01b8152600401602060405180830381865afa158015611380573d5f5f3e3d5ffd5b505050506040513d601f19601f820116820180604052508101906113a49190611c68565b6001600160a01b0316146113cb5760405163e2aa49c960e01b815260040160405180910390fd5b5f5f5f848060200190518101906113e29190611b1e565b925092509250816001600160a01b0316836001600160a01b03167fdf3f504866d50a84b91b090569584d1b5c9dcf7ca7ab4f415581f7235cbad9938360405161122c91815260200190565b33806001600160a01b03165f5f9054906101000a90046001600160a01b03166001600160a01b03166344c63eec6040518163ffffffff1660e01b8152600401602060405180830381865afa158015611487573d5f5f3e3d5ffd5b505050506040513d601f19601f820116820180604052508101906114ab9190611c68565b6001600160a01b0316146114d25760405163e2aa49c960e01b815260040160405180910390fd5b5f5f5f848060200190518101906114e99190611b1e565b925092509250816001600160a01b0316836001600160a01b03167fee0c5b42495700baed9567e39dbb5e6943f8cca8293a3cc66f6c9b11f0f573ea8360405161122c91815260200190565b5f5f8280602001905181019061154a9190611c83565b91509150816001600160a01b0316336001600160a01b03167f010793514f660700cb9156a316cb9c9eff32c90f64e90156b9fbba119db563b883604051611157911515815260200190565b5f5f5f838060200190518101906115ac9190611cb0565b604080518381526020810183905293965091945092506001600160a01b0385169133917f323f66116793b9263518c43780ddbf6cca21d35289181259281dd7a75b26ccea910160405180910390a350505050565b61160a82826106a3565b6106845760405163e2517d3f60e01b81526001600160a01b038216600482015260248101839052604401610e93565b6116416116b3565b61040157604051631afcd79f60e31b815260040160405180910390fd5b611667826116cc565b6040516001600160a01b038316907fbc7cd75a20ee27fd9adebab32041f755214dbc6bffa90cc0225b39da2e5c2d3b905f90a28051156116ab5761042a828261172f565b6106846117a1565b5f6116bc610cd7565b54600160401b900460ff16919050565b806001600160a01b03163b5f0361170157604051634c9c8ce360e01b81526001600160a01b0382166004820152602401610e93565b5f516020611d0f5f395f51905f5280546001600160a01b0319166001600160a01b0392909216919091179055565b60605f5f846001600160a01b03168460405161174b9190611ce4565b5f60405180830381855af49150503d805f8114611783576040519150601f19603f3d011682016040523d82523d5f602084013e611788565b606091505b50915091506117988583836117c0565b95945050505050565b34156104015760405163b398979f60e01b815260040160405180910390fd5b6060826117d5576117d08261181f565b611818565b81511580156117ec57506001600160a01b0384163b155b1561181557604051639996b31560e01b81526001600160a01b0385166004820152602401610e93565b50805b9392505050565b80511561182e57805160208201fd5b60405163d6bda27560e01b815260040160405180910390fd5b610401611cfa565b5f6020828403121561185f575f5ffd5b81356001600160e01b031981168114611818575f5ffd5b6001600160a01b03811681146104d3575f5ffd5b80151581146104d3575f5ffd5b5f5f604083850312156118a8575f5ffd5b82356118b381611876565b915060208301356118c38161188a565b809150509250929050565b5f602082840312156118de575f5ffd5b5035919050565b5f5f604083850312156118f6575f5ffd5b8235915060208301356118c381611876565b5f60208284031215611918575f5ffd5b813561181881611876565b5f5f60408385031215611934575f5ffd5b823561193f81611876565b915060208301356118c381611876565b634e487b7160e01b5f52604160045260245ffd5b5f82601f830112611972575f5ffd5b81356001600160401b0381111561198b5761198b61194f565b604051601f8201601f19908116603f011681016001600160401b03811182821017156119b9576119b961194f565b6040528181528382016020018510156119d0575f5ffd5b816020850160208301375f918101602001919091529392505050565b5f5f604083850312156119fd575f5ffd5b8235611a0881611876565b915060208301356001600160401b03811115611a22575f5ffd5b611a2e85828601611963565b9150509250929050565b602081525f82518060208401528060208501604085015e5f604082850101526040601f19601f83011684010191505092915050565b5f5f60408385031215611a7e575f5ffd5b8235600d8110611a08575f5ffd5b634e487b7160e01b5f52602160045260245ffd5b5f60208284031215611ab0575f5ffd5b5051919050565b5f5f5f5f5f60a08688031215611acb575f5ffd5b8551611ad681611876565b6020870151909550611ae781611876565b6040870151909450611af881611876565b606087015160808801519194509250611b1081611876565b809150509295509295909350565b5f5f5f60608486031215611b30575f5ffd5b8351611b3b81611876565b6020850151909350611b4c81611876565b6040949094015192959394509192915050565b5f5f5f5f5f60a08688031215611b73575f5ffd5b8551611b7e81611876565b602087015160408801516060890151608090990151929a91995097965090945092505050565b5f5f60408385031215611bb5575f5ffd5b8251611bc081611876565b6020939093015192949293505050565b5f5f5f5f60808587031215611be3575f5ffd5b8451611bee81611876565b60208601516040870151606090970151919890975090945092505050565b5f5f5f5f60808587031215611c1f575f5ffd5b8451611c2a81611876565b6020860151909450611c3b81611876565b6040860151909350611c4c81611876565b6060860151909250611c5d81611876565b939692955090935050565b5f60208284031215611c78575f5ffd5b815161181881611876565b5f5f60408385031215611c94575f5ffd5b8251611c9f81611876565b60208401519092506118c38161188a565b5f5f5f60608486031215611cc2575f5ffd5b8351611ccd81611876565b602085015160409095015190969495509392505050565b5f82518060208501845e5f920191825250919050565b634e487b7160e01b5f52605160045260245ffdfe360894a13ba1a3210667c828492db98dca3e2076cc3735a920a3ca505d382bbc0ac90c257048ef1c3e387c26d4a99bde06894efbcbff862dc1885c3a9319308a197be64392589b14fc39bd0b2d85d3e04f55cc38b1bdc1a9b633f44cb6ae116402dd7bc7dec4dceedda775e58dd541e08a116c6c53815c0bd028192f7b626800a26469706673582212204f62d462112206e7563f03b53b77902c5998d1a0d087aae97a860bf829a7c5d864736f6c634300081c0033",
  "linkReferences": {},
  "deployedLinkReferences": {},
  "immutableReferences": {
    "652": [
      {
        "length": 32,
        "start": 3442
      },
      {
        "length": 32,
        "start": 3483
      },
      {
        "length": 32,
        "start": 3809
      }
    ]
  },
  "inputSourceName": "project/contracts/EventEmitter.sol",
  "buildInfoId": "solc-0_8_28-dd354514f8f3818b23e38dd644dcf0266965710a"
}