{
  "_format": "hh3-artifact-1",
  "contractName": "Token",
  "sourceName": "contracts/Token.sol",
  "abi": [
    {
      "inputs": [],
      "stateMutability": "nonpayable",
      "type": "constructor"
    },
    {
      "inputs": [],
      "name": "AccessControlBadConfirmation",
      "type": "error"
    },
    {
      "inputs": [
        {
          "internalType": "address",
          "name": "account",
          "type": "address"
        },
        {
          "internalType": "bytes32",
          "name": "neededRole",
          "type": "bytes32"
        }
      ],
      "name": "AccessControlUnauthorizedAccount",
      "type": "error"
    },
    {
      "inputs": [],
      "name": "Blacklisted",
      "type": "error"
    },
    {
      "inputs": [],
      "name": "ECDSAInvalidSignature",
      "type": "error"
    },
    {
      "inputs": [
        {
          "internalType": "uint256",
          "name": "length",
          "type": "uint256"
        }
      ],
      "name": "ECDSAInvalidSignatureLength",
      "type": "error"
    },
    {
      "inputs": [
        {
          "internalType": "bytes32",
          "name": "s",
          "type": "bytes32"
        }
      ],
      "name": "ECDSAInvalidSignatureS",
      "type": "error"
    },
    {
      "inputs": [
        {
          "internalType": "address",
          "name": "spender",
          "type": "address"
        },
        {
          "internalType": "uint256",
          "name": "allowance",
          "type": "uint256"
        },
        {
          "internalType": "uint256",
          "name": "needed",
          "type": "uint256"
        }
      ],
      "name": "ERC20InsufficientAllowance",
      "type": "error"
    },
    {
      "inputs": [
        {
          "internalType": "address",
          "name": "sender",
          "type": "address"
        },
        {
          "internalType": "uint256",
          "name": "balance",
          "type": "uint256"
        },
        {
          "internalType": "uint256",
          "name": "needed",
          "type": "uint256"
        }
      ],
      "name": "ERC20InsufficientBalance",
      "type": "error"
    },
    {
      "inputs": [
        {
          "internalType": "address",
          "name": "approver",
          "type": "address"
        }
      ],
      "name": "ERC20InvalidApprover",
      "type": "error"
    },
    {
      "inputs": [
        {
          "internalType": "address",
          "name": "receiver",
          "type": "address"
        }
      ],
      "name": "ERC20InvalidReceiver",
      "type": "error"
    },
    {
      "inputs": [
        {
          "internalType": "address",
          "name": "sender",
          "type": "address"
        }
      ],
      "name": "ERC20InvalidSender",
      "type": "error"
    },
    {
      "inputs": [
        {
          "internalType": "address",
          "name": "spender",
          "type": "address"
        }
      ],
      "name": "ERC20InvalidSpender",
      "type": "error"
    },
    {
      "inputs": [
        {
          "internalType": "uint256",
          "name": "deadline",
          "type": "uint256"
        }
      ],
      "name": "ERC2612ExpiredSignature",
      "type": "error"
    },
    {
      "inputs": [
        {
          "internalType": "address",
          "name": "signer",
          "type": "address"
        },
        {
          "internalType": "address",
          "name": "owner",
          "type": "address"
        }
      ],
      "name": "ERC2612InvalidSigner",
      "type": "error"
    },
    {
      "inputs": [
        {
          "internalType": "address",
          "name": "account",
          "type": "address"
        },
        {
          "internalType": "uint256",
          "name": "currentNonce",
          "type": "uint256"
        }
      ],
      "name": "InvalidAccountNonce",
      "type": "error"
    },
    {
      "inputs": [],
      "name": "InvalidInitialization",
      "type": "error"
    },
    {
      "inputs": [],
      "name": "NotInitializing",
      "type": "error"
    },
    {
      "anonymous": false,
      "inputs": [
        {
          "indexed": true,
          "internalType": "address",
          "name": "owner",
          "type": "address"
        },
        {
          "indexed": true,
          "internalType": "address",
          "name": "spender",
          "type": "address"
        },
        {
          "indexed": false,
          "internalType": "uint256",
          "name": "value",
          "type": "uint256"
        }
      ],
      "name": "Approval",
      "type": "event"
    },
    {
      "anonymous": false,
      "inputs": [],
      "name": "EIP712DomainChanged",
      "type": "event"
    },
    {
      "anonymous": false,
      "inputs": [
        {
          "indexed": false,
          "internalType": "uint64",
          "name": "version",
          "type": "uint64"
        }
      ],
      "name": "Initialized",
      "type": "event"
    },
    {
      "anonymous": false,
      "inputs": [
        {
          "indexed": true,
          "internalType": "bytes32",
          "name": "role",
          "type": "bytes32"
        },
        {
          "indexed": true,
          "internalType": "bytes32",
          "name": "previousAdminRole",
          "type": "bytes32"
        },
        {
          "indexed": true,
          "internalType": "bytes32",
          "name": "newAdminRole",
          "type": "bytes32"
        }
      ],
      "name": "RoleAdminChanged",
      "type": "event"
    },
    {
      "anonymous": false,
      "inputs": [
        {
          "indexed": true,
          "internalType": "bytes32",
          "name": "role",
          "type": "bytes32"
        },
        {
          "indexed": true,
          "internalType": "address",
          "name": "account",
          "type": "address"
        },
        {
          "indexed": true,
          "internalType": "address",
          "name": "sender",
          "type": "address"
        }
      ],
      "name": "RoleGranted",
      "type": "event"
    },
    {
      "anonymous": false,
      "inputs": [
        {
          "indexed": true,
          "internalType": "bytes32",
          "name": "role",
          "type": "bytes32"
        },
        {
          "indexed": true,
          "internalType": "address",
          "name": "account",
          "type": "address"
        },
        {
          "indexed": true,
          "internalType": "address",
          "name": "sender",
          "type": "address"
        }
      ],
      "name": "RoleRevoked",
      "type": "event"
    },
    {
      "anonymous": false,
      "inputs": [
        {
          "indexed": true,
          "internalType": "address",
          "name": "from",
          "type": "address"
        },
        {
          "indexed": true,
          "internalType": "address",
          "name": "to",
          "type": "address"
        },
        {
          "indexed": false,
          "internalType": "uint256",
          "name": "value",
          "type": "uint256"
        }
      ],
      "name": "Transfer",
      "type": "event"
    },
    {
      "inputs": [],
      "name": "BLACKLIST_ADMIN_ROLE",
      "outputs": [
        {
          "internalType": "bytes32",
          "name": "",
          "type": "bytes32"
        }
      ],
      "stateMutability": "view",
      "type": "function"
    },
    {
      "inputs": [],
      "name": "DEFAULT_ADMIN_ROLE",
      "outputs": [
        {
          "internalType": "bytes32",
          "name": "",
          "type": "bytes32"
        }
      ],
      "stateMutability": "view",
      "type": "function"
    },
    {
      "inputs": [],
      "name": "DOMAIN_SEPARATOR",
      "outputs": [
        {
          "internalType": "bytes32",
          "name": "",
          "type": "bytes32"
        }
      ],
      "stateMutability": "view",
      "type": "function"
    },
    {
      "inputs": [],
      "name": "MINT_ROLE",
      "outputs": [
        {
          "internalType": "bytes32",
          "name": "",
          "type": "bytes32"
        }
      ],
      "stateMutability": "view",
      "type": "function"
    },
    {
      "inputs": [],
      "name": "agentId",
      "outputs": [
        {
          "internalType": "string",
          "name": "",
          "type": "string"
        }
      ],
      "stateMutability": "view",
      "type": "function"
    },
    {
      "inputs": [
        {
          "internalType": "address",
          "name": "owner",
          "type": "address"
        },
        {
          "internalType": "address",
          "name": "spender",
          "type": "address"
        }
      ],
      "name": "allowance",
      "outputs": [
        {
          "internalType": "uint256",
          "name": "",
          "type": "uint256"
        }
      ],
      "stateMutability": "view",
      "type": "function"
    },
    {
      "inputs": [],
      "name": "am",
      "outputs": [
        {
          "internalType": "contract IAddressManager",
          "name": "",
          "type": "address"
        }
      ],
      "stateMutability": "view",
      "type": "function"
    },
    {
      "inputs": [
        {
          "internalType": "address",
          "name": "spender",
          "type": "address"
        },
        {
          "internalType": "uint256",
          "name": "value",
          "type": "uint256"
        }
      ],
      "name": "approve",
      "outputs": [
        {
          "internalType": "bool",
          "name": "",
          "type": "bool"
        }
      ],
      "stateMutability": "nonpayable",
      "type": "function"
    },
    {
      "inputs": [
        {
          "internalType": "address",
          "name": "account",
          "type": "address"
        }
      ],
      "name": "balanceOf",
      "outputs": [
        {
          "internalType": "uint256",
          "name": "",
          "type": "uint256"
        }
      ],
      "stateMutability": "view",
      "type": "function"
    },
    {
      "inputs": [
        {
          "internalType": "address",
          "name": "",
          "type": "address"
        }
      ],
      "name": "blacklisted",
      "outputs": [
        {
          "internalType": "bool",
          "name": "",
          "type": "bool"
        }
      ],
      "stateMutability": "view",
      "type": "function"
    },
    {
      "inputs": [],
      "name": "decimals",
      "outputs": [
        {
          "internalType": "uint8",
          "name": "",
          "type": "uint8"
        }
      ],
      "stateMutability": "view",
      "type": "function"
    },
    {
      "inputs": [],
      "name": "eip712Domain",
      "outputs": [
        {
          "internalType": "bytes1",
          "name": "fields",
          "type": "bytes1"
        },
        {
          "internalType": "string",
          "name": "name",
          "type": "string"
        },
        {
          "internalType": "string",
          "name": "version",
          "type": "string"
        },
        {
          "internalType": "uint256",
          "name": "chainId",
          "type": "uint256"
        },
        {
          "internalType": "address",
          "name": "verifyingContract",
          "type": "address"
        },
        {
          "internalType": "bytes32",
          "name": "salt",
          "type": "bytes32"
        },
        {
          "internalType": "uint256[]",
          "name": "extensions",
          "type": "uint256[]"
        }
      ],
      "stateMutability": "view",
      "type": "function"
    },
    {
      "inputs": [
        {
          "internalType": "bytes32",
          "name": "role",
          "type": "bytes32"
        }
      ],
      "name": "getRoleAdmin",
      "outputs": [
        {
          "internalType": "bytes32",
          "name": "",
          "type": "bytes32"
        }
      ],
      "stateMutability": "view",
      "type": "function"
    },
    {
      "inputs": [
        {
          "internalType": "bytes32",
          "name": "role",
          "type": "bytes32"
        },
        {
          "internalType": "address",
          "name": "account",
          "type": "address"
        }
      ],
      "name": "grantRole",
      "outputs": [],
      "stateMutability": "nonpayable",
      "type": "function"
    },
    {
      "inputs": [
        {
          "internalType": "bytes32",
          "name": "role",
          "type": "bytes32"
        },
        {
          "internalType": "address",
          "name": "account",
          "type": "address"
        }
      ],
      "name": "hasRole",
      "outputs": [
        {
          "internalType": "bool",
          "name": "",
          "type": "bool"
        }
      ],
      "stateMutability": "view",
      "type": "function"
    },
    {
      "inputs": [
        {
          "internalType": "contract IAddressManager",
          "name": "addressManager_",
          "type": "address"
        },
        {
          "internalType": "string",
          "name": "name",
          "type": "string"
        },
        {
          "internalType": "string",
          "name": "symbol",
          "type": "string"
        },
        {
          "internalType": "string",
          "name": "agentId_",
          "type": "string"
        }
      ],
      "name": "initialize",
      "outputs": [],
      "stateMutability": "nonpayable",
      "type": "function"
    },
    {
      "inputs": [
        {
          "internalType": "address",
          "name": "to",
          "type": "address"
        }
      ],
      "name": "mint",
      "outputs": [],
      "stateMutability": "nonpayable",
      "type": "function"
    },
    {
      "inputs": [],
      "name": "name",
      "outputs": [
        {
          "internalType": "string",
          "name": "",
          "type": "string"
        }
      ],
      "stateMutability": "view",
      "type": "function"
    },
    {
      "inputs": [
        {
          "internalType": "address",
          "name": "owner",
          "type": "address"
        }
      ],
      "name": "nonces",
      "outputs": [
        {
          "internalType": "uint256",
          "name": "",
          "type": "uint256"
        }
      ],
      "stateMutability": "view",
      "type": "function"
    },
    {
      "inputs": [
        {
          "internalType": "address",
          "name": "owner",
          "type": "address"
        },
        {
          "internalType": "address",
          "name": "spender",
          "type": "address"
        },
        {
          "internalType": "uint256",
          "name": "value",
          "type": "uint256"
        },
        {
          "internalType": "uint256",
          "name": "deadline",
          "type": "uint256"
        },
        {
          "internalType": "uint8",
          "name": "v",
          "type": "uint8"
        },
        {
          "internalType": "bytes32",
          "name": "r",
          "type": "bytes32"
        },
        {
          "internalType": "bytes32",
          "name": "s",
          "type": "bytes32"
        }
      ],
      "name": "permit",
      "outputs": [],
      "stateMutability": "nonpayable",
      "type": "function"
    },
    {
      "inputs": [
        {
          "internalType": "bytes32",
          "name": "role",
          "type": "bytes32"
        },
        {
          "internalType": "address",
          "name": "callerConfirmation",
          "type": "address"
        }
      ],
      "name": "renounceRole",
      "outputs": [],
      "stateMutability": "nonpayable",
      "type": "function"
    },
    {
      "inputs": [
        {
          "internalType": "bytes32",
          "name": "role",
          "type": "bytes32"
        },
        {
          "internalType": "address",
          "name": "account",
          "type": "address"
        }
      ],
      "name": "revokeRole",
      "outputs": [],
      "stateMutability": "nonpayable",
      "type": "function"
    },
    {
      "inputs": [
        {
          "internalType": "address",
          "name": "account",
          "type": "address"
        },
        {
          "internalType": "bool",
          "name": "isBlacklisted",
          "type": "bool"
        }
      ],
      "name": "setBlacklisted",
      "outputs": [],
      "stateMutability": "nonpayable",
      "type": "function"
    },
    {
      "inputs": [
        {
          "internalType": "bytes4",
          "name": "interfaceId",
          "type": "bytes4"
        }
      ],
      "name": "supportsInterface",
      "outputs": [
        {
          "internalType": "bool",
          "name": "",
          "type": "bool"
        }
      ],
      "stateMutability": "view",
      "type": "function"
    },
    {
      "inputs": [],
      "name": "symbol",
      "outputs": [
        {
          "internalType": "string",
          "name": "",
          "type": "string"
        }
      ],
      "stateMutability": "view",
      "type": "function"
    },
    {
      "inputs": [],
      "name": "totalSupply",
      "outputs": [
        {
          "internalType": "uint256",
          "name": "",
          "type": "uint256"
        }
      ],
      "stateMutability": "pure",
      "type": "function"
    },
    {
      "inputs": [
        {
          "internalType": "address",
          "name": "to",
          "type": "address"
        },
        {
          "internalType": "uint256",
          "name": "value",
          "type": "uint256"
        }
      ],
      "name": "transfer",
      "outputs": [
        {
          "internalType": "bool",
          "name": "",
          "type": "bool"
        }
      ],
      "stateMutability": "nonpayable",
      "type": "function"
    },
    {
      "inputs": [
        {
          "internalType": "address",
          "name": "from",
          "type": "address"
        },
        {
          "internalType": "address",
          "name": "to",
          "type": "address"
        },
        {
          "internalType": "uint256",
          "name": "value",
          "type": "uint256"
        }
      ],
      "name": "transferFrom",
      "outputs": [
        {
          "internalType": "bool",
          "name": "",
          "type": "bool"
        }
      ],
      "stateMutability": "nonpayable",
      "type": "function"
    }
  ],
  "bytecode": "0x6080604052348015600e575f5ffd5b5060156019565b60c9565b7ff0c57e16840df040f15088dc2f81fe391c3923bec73e23a9662efc9c229c6a00805468010000000000000000900460ff161560685760405163f92ee8a960e01b815260040160405180910390fd5b80546001600160401b039081161460c65780546001600160401b0319166001600160401b0390811782556040519081527fc7f505b2f371ae2175ee4913f4499e1f2633a7b5936321eed1cdaeb6115181d29060200160405180910390a15b50565b611d04806100d65f395ff3fe608060405234801561000f575f5ffd5b50600436106101bb575f3560e01c806370a08231116100f3578063d01dd6d211610093578063dbac26e91161006e578063dbac26e9146103b7578063dd62ed3e146103d9578063e84f43b7146103ec578063e9a9c850146103f4575f5ffd5b8063d01dd6d21461037e578063d505accf14610391578063d547741f146103a4575f5ffd5b806391d14854116100ce57806391d148541461034957806395d89b411461035c578063a217fddf14610364578063a9059cbb1461036b575f5ffd5b806370a08231146103085780637ecebe001461031b57806384b0196e1461032e575f5ffd5b8063313ce5671161015e578063517382be11610139578063517382be146102915780635f1e6f6d146102bb57806367ed99f4146102ce5780636a627842146102f5575f5ffd5b8063313ce567146102675780633644e5151461027657806336568abe1461027e575f5ffd5b806318160ddd1161019957806318160ddd1461020f57806323b872dd1461022c578063248a9ca31461023f5780632f2ff15d14610252575f5ffd5b806301ffc9a7146101bf57806306fdde03146101e7578063095ea7b3146101fc575b5f5ffd5b6101d26101cd3660046116dc565b610408565b60405190151581526020015b60405180910390f35b6101ef61043e565b6040516101de9190611738565b6101d261020a36600461175e565b6104e3565b6c01431e0fae6d7217caa00000005b6040519081526020016101de565b6101d261023a366004611788565b6104fa565b61021e61024d3660046117c6565b61051d565b6102656102603660046117dd565b61053d565b005b604051601281526020016101de565b61021e61055f565b61026561028c3660046117dd565b61056d565b5f546102a3906001600160a01b031681565b6040516001600160a01b0390911681526020016101de565b6102656102c93660046118aa565b6105a5565b61021e7f750555ed2187fef9a15b1b2d80b65634c266437a86c68f049ea8b5da4a2bd96d81565b61026561030336600461194b565b610794565b61021e61031636600461194b565b6107d9565b61021e61032936600461194b565b610809565b610336610813565b6040516101de9796959493929190611966565b6101d26103573660046117dd565b6108c1565b6101ef6108f7565b61021e5f81565b6101d261037936600461175e565b610935565b61026561038c3660046119fc565b610942565b61026561039f366004611a2c565b610a55565b6102656103b23660046117dd565b610baa565b6101d26103c536600461194b565b60016020525f908152604090205460ff1681565b61021e6103e7366004611a9d565b610bc6565b6101ef610c0f565b61021e5f516020611c8f5f395f51905f5281565b5f6001600160e01b03198216637965db0b60e01b148061043857506301ffc9a760e01b6001600160e01b03198316145b92915050565b60605f5f516020611c4f5f395f51905f525b905080600301805461046190611ac9565b80601f016020809104026020016040519081016040528092919081815260200182805461048d90611ac9565b80156104d85780601f106104af576101008083540402835291602001916104d8565b820191905f5260205f20905b8154815290600101906020018083116104bb57829003601f168201915b505050505091505090565b5f336104f0818585610c9b565b5060019392505050565b5f33610507858285610ca8565b610512858585610d06565b506001949350505050565b5f9081525f516020611caf5f395f51905f52602052604090206001015490565b6105468261051d565b61054f81610d63565b6105598383610d70565b50505050565b5f610568610e11565b905090565b6001600160a01b03811633146105965760405163334bd91960e11b815260040160405180910390fd5b6105a08282610e1a565b505050565b5f6105ae610e93565b805490915060ff600160401b820416159067ffffffffffffffff165f811580156105d55750825b90505f8267ffffffffffffffff1660011480156105f15750303b155b9050811580156105ff575080155b1561061d5760405163f92ee8a960e01b815260040160405180910390fd5b845467ffffffffffffffff19166001178555831561064757845460ff60401b1916600160401b1785555b6106518888610ebb565b610659610ed1565b5f80546001600160a01b0319166001600160a01b038b16179055600261067f8782611b45565b5061068a5f33610d70565b506106b57f750555ed2187fef9a15b1b2d80b65634c266437a86c68f049ea8b5da4a2bd96d33610d70565b506106e07f22435ed027edf5f902dc0093fbc24cdb50c05b5fd5f311b78c67c1cbaff60e1333610d70565b506106f85f516020611c8f5f395f51905f5233610d70565b506107437f22435ed027edf5f902dc0093fbc24cdb50c05b5fd5f311b78c67c1cbaff60e137f750555ed2187fef9a15b1b2d80b65634c266437a86c68f049ea8b5da4a2bd96d610edb565b831561078957845460ff60401b19168555604051600181527fc7f505b2f371ae2175ee4913f4499e1f2633a7b5936321eed1cdaeb6115181d29060200160405180910390a15b505050505050505050565b5f516020611c8f5f395f51905f526107ab81610d63565b6107c2826c01431e0fae6d7217caa0000000610f3b565b6105a05f516020611c8f5f395f51905f5233610e1a565b5f805f516020611c4f5f395f51905f525b6001600160a01b039093165f9081526020939093525050604090205490565b5f61043882610f6f565b5f60608082808083815f516020611c6f5f395f51905f52805490915015801561083e57506001810154155b6108875760405162461bcd60e51b81526020600482015260156024820152741152540dcc4c8e88155b9a5b9a5d1a585b1a5e9959605a1b60448201526064015b60405180910390fd5b61088f610f97565b610897610fd5565b604080515f80825260208201909252600f60f81b9c939b5091995046985030975095509350915050565b5f9182525f516020611caf5f395f51905f52602090815260408084206001600160a01b0393909316845291905290205460ff1690565b7f52c63247e1f47db19d5ce0460030c497f067ca4cebf71ba98eeadabe20bace0480546060915f516020611c4f5f395f51905f529161046190611ac9565b5f336104f0818585610d06565b7f22435ed027edf5f902dc0093fbc24cdb50c05b5fd5f311b78c67c1cbaff60e1361096c81610d63565b6001600160a01b038381165f908152600160209081526040808320805460ff1916871515179055915482516309ff78c360e41b81529251931692639ff78c309260048082019392918290030181865afa1580156109cb573d5f5f3e3d5ffd5b505050506040513d601f19601f820116820180604052508101906109ef9190611c00565b6040516328b01e6f60e21b81526001600160a01b0385811660048301528415156024830152919091169063a2c079bc906044015b5f604051808303815f87803b158015610a3a575f5ffd5b505af1158015610a4c573d5f5f3e3d5ffd5b50505050505050565b83421115610a795760405163313c898160e11b81526004810185905260240161087e565b5f7f6e71edae12b1b97f4d1f60370fef10105fa2faae0126114a169c64845d6126c9888888610ae38c6001600160a01b03165f9081527f5ab42ced628888259c08ac98db1eb0cf702fc1501344311d8b100cd1bfe4bb006020526040902080546001810190915590565b6040805160208101969096526001600160a01b0394851690860152929091166060840152608083015260a082015260c0810186905260e0016040516020818303038152906040528051906020012090505f610b3d82610feb565b90505f610b4c82878787611017565b9050896001600160a01b0316816001600160a01b031614610b93576040516325c0072360e11b81526001600160a01b0380831660048301528b16602482015260440161087e565b610b9e8a8a8a610c9b565b50505050505050505050565b610bb38261051d565b610bbc81610d63565b6105598383610e1a565b6001600160a01b039182165f9081527f52c63247e1f47db19d5ce0460030c497f067ca4cebf71ba98eeadabe20bace016020908152604080832093909416825291909152205490565b60028054610c1c90611ac9565b80601f0160208091040260200160405190810160405280929190818152602001828054610c4890611ac9565b8015610c935780601f10610c6a57610100808354040283529160200191610c93565b820191905f5260205f20905b815481529060010190602001808311610c7657829003601f168201915b505050505081565b6105a08383836001611043565b5f610cb38484610bc6565b90505f198110156105595781811015610cf857604051637dc7a0d960e11b81526001600160a01b0384166004820152602481018290526044810183905260640161087e565b61055984848484035f611043565b6001600160a01b038316610d2f57604051634b637e8f60e11b81525f600482015260240161087e565b6001600160a01b038216610d585760405163ec442f0560e01b81525f600482015260240161087e565b6105a0838383611127565b610d6d813361123f565b50565b5f5f516020611caf5f395f51905f52610d8984846108c1565b610e08575f848152602082815260408083206001600160a01b03871684529091529020805460ff19166001179055610dbe3390565b6001600160a01b0316836001600160a01b0316857f2f8788117e7eff1d82e926ec794901d17c78024a50270940304540a733656f0d60405160405180910390a46001915050610438565b5f915050610438565b5f610568611278565b5f5f516020611caf5f395f51905f52610e3384846108c1565b15610e08575f848152602082815260408083206001600160a01b0387168085529252808320805460ff1916905551339287917ff6391f5c32d9c69d2a47ea670b442974b53935d1edc7fd64eb21e047a839171b9190a46001915050610438565b5f807ff0c57e16840df040f15088dc2f81fe391c3923bec73e23a9662efc9c229c6a00610438565b610ec36112eb565b610ecd8282611310565b5050565b610ed96112eb565b565b5f516020611caf5f395f51905f525f610ef38461051d565b5f85815260208490526040808220600101869055519192508491839187917fbd79b86ffe0ab8e8776151514217cd7cacd52c909f66475c3af44e129f0b00ff9190a450505050565b6001600160a01b038216610f645760405163ec442f0560e01b81525f600482015260240161087e565b610ecd5f8383611127565b5f807f5ab42ced628888259c08ac98db1eb0cf702fc1501344311d8b100cd1bfe4bb006107ea565b7fa16a46d94261c7517cc8ff89f61c0ce93598e3c849801011dee649a6a557d10280546060915f516020611c6f5f395f51905f529161046190611ac9565b60605f5f516020611c6f5f395f51905f52610450565b5f610438610ff7610e11565b8360405161190160f01b8152600281019290925260228201526042902090565b5f5f5f5f61102788888888611360565b9250925092506110378282611428565b50909695505050505050565b5f516020611c4f5f395f51905f526001600160a01b03851661107a5760405163e602df0560e01b81525f600482015260240161087e565b6001600160a01b0384166110a357604051634a1406b160e11b81525f600482015260240161087e565b6001600160a01b038086165f9081526001830160209081526040808320938816835292905220839055811561112057836001600160a01b0316856001600160a01b03167f8c5be1e5ebec7d5bd14f71427d1e84f3dd0314c0f7b2291e5b200ac8c7c3b9258560405161111791815260200190565b60405180910390a35b5050505050565b6111328383836114e0565b6001600160a01b0383165f9081526001602052604090205460ff168061116f57506001600160a01b0382165f9081526001602052604090205460ff165b1561118d576040516309550c7760e01b815260040160405180910390fd5b5f5f9054906101000a90046001600160a01b03166001600160a01b0316639ff78c306040518163ffffffff1660e01b8152600401602060405180830381865afa1580156111dc573d5f5f3e3d5ffd5b505050506040513d601f19601f820116820180604052508101906112009190611c00565b60405163df7f9a3760e01b81526001600160a01b038581166004830152848116602483015260448201849052919091169063df7f9a3790606401610a23565b61124982826108c1565b610ecd5760405163e2517d3f60e01b81526001600160a01b03821660048201526024810183905260440161087e565b5f7f8b73c3c69bb8fe3d512ecc4cf759cc79239f7b179b0ffacaa9a75d522b39400f6112a2611619565b6112aa611681565b60408051602081019490945283019190915260608201524660808201523060a082015260c00160405160208183030381529060405280519060200120905090565b6112f36116c3565b610ed957604051631afcd79f60e31b815260040160405180910390fd5b6113186112eb565b5f516020611c4f5f395f51905f527f52c63247e1f47db19d5ce0460030c497f067ca4cebf71ba98eeadabe20bace036113518482611b45565b50600481016105598382611b45565b5f80807f7fffffffffffffffffffffffffffffff5d576e7357a4501ddfe92f46681b20a084111561139957505f9150600390508261141e565b604080515f808252602082018084528a905260ff891692820192909252606081018790526080810186905260019060a0016020604051602081039080840390855afa1580156113ea573d5f5f3e3d5ffd5b5050604051601f1901519150506001600160a01b03811661141557505f92506001915082905061141e565b92505f91508190505b9450945094915050565b5f82600381111561143b5761143b611c1b565b03611444575050565b600182600381111561145857611458611c1b565b036114765760405163f645eedf60e01b815260040160405180910390fd5b600282600381111561148a5761148a611c1b565b036114ab5760405163fce698f760e01b81526004810182905260240161087e565b60038260038111156114bf576114bf611c1b565b03610ecd576040516335e2f38360e21b81526004810182905260240161087e565b5f516020611c4f5f395f51905f526001600160a01b03841661151a5781816002015f82825461150f9190611c2f565b9091555061158a9050565b6001600160a01b0384165f908152602082905260409020548281101561156c5760405163391434e360e21b81526001600160a01b0386166004820152602481018290526044810184905260640161087e565b6001600160a01b0385165f9081526020839052604090209083900390555b6001600160a01b0383166115a85760028101805483900390556115c6565b6001600160a01b0383165f9081526020829052604090208054830190555b826001600160a01b0316846001600160a01b03167fddf252ad1be2c89b69c2b068fc378daa952ba7f163c4a11628f55a4df523b3ef8460405161160b91815260200190565b60405180910390a350505050565b5f5f516020611c6f5f395f51905f5281611631610f97565b80519091501561164957805160209091012092915050565b81548015611658579392505050565b7fc5d2460186f7233c927e7db2dcc703c0e500b653ca82273b7bfad8045d85a470935050505090565b5f5f516020611c6f5f395f51905f5281611699610fd5565b8051909150156116b157805160209091012092915050565b60018201548015611658579392505050565b5f6116cc610e93565b54600160401b900460ff16919050565b5f602082840312156116ec575f5ffd5b81356001600160e01b031981168114611703575f5ffd5b9392505050565b5f81518084528060208401602086015e5f602082860101526020601f19601f83011685010191505092915050565b602081525f611703602083018461170a565b6001600160a01b0381168114610d6d575f5ffd5b5f5f6040838503121561176f575f5ffd5b823561177a8161174a565b946020939093013593505050565b5f5f5f6060848603121561179a575f5ffd5b83356117a58161174a565b925060208401356117b58161174a565b929592945050506040919091013590565b5f602082840312156117d6575f5ffd5b5035919050565b5f5f604083850312156117ee575f5ffd5b8235915060208301356118008161174a565b809150509250929050565b634e487b7160e01b5f52604160045260245ffd5b5f82601f83011261182e575f5ffd5b813567ffffffffffffffff8111156118485761184861180b565b604051601f8201601f19908116603f0116810167ffffffffffffffff811182821017156118775761187761180b565b60405281815283820160200185101561188e575f5ffd5b816020850160208301375f918101602001919091529392505050565b5f5f5f5f608085870312156118bd575f5ffd5b84356118c88161174a565b9350602085013567ffffffffffffffff8111156118e3575f5ffd5b6118ef8782880161181f565b935050604085013567ffffffffffffffff81111561190b575f5ffd5b6119178782880161181f565b925050606085013567ffffffffffffffff811115611933575f5ffd5b61193f8782880161181f565b91505092959194509250565b5f6020828403121561195b575f5ffd5b81356117038161174a565b60ff60f81b8816815260e060208201525f61198460e083018961170a565b8281036040840152611996818961170a565b606084018890526001600160a01b038716608085015260a0840186905283810360c0850152845180825260208087019350909101905f5b818110156119eb5783518352602093840193909201916001016119cd565b50909b9a5050505050505050505050565b5f5f60408385031215611a0d575f5ffd5b8235611a188161174a565b915060208301358015158114611800575f5ffd5b5f5f5f5f5f5f5f60e0888a031215611a42575f5ffd5b8735611a4d8161174a565b96506020880135611a5d8161174a565b95506040880135945060608801359350608088013560ff81168114611a80575f5ffd5b9699959850939692959460a0840135945060c09093013592915050565b5f5f60408385031215611aae575f5ffd5b8235611ab98161174a565b915060208301356118008161174a565b600181811c90821680611add57607f821691505b602082108103611afb57634e487b7160e01b5f52602260045260245ffd5b50919050565b601f8211156105a057805f5260205f20601f840160051c81016020851015611b265750805b601f840160051c820191505b81811015611120575f8155600101611b32565b815167ffffffffffffffff811115611b5f57611b5f61180b565b611b7381611b6d8454611ac9565b84611b01565b6020601f821160018114611ba5575f8315611b8e5750848201515b5f19600385901b1c1916600184901b178455611120565b5f84815260208120601f198516915b82811015611bd45787850151825560209485019460019092019101611bb4565b5084821015611bf157868401515f19600387901b60f8161c191681555b50505050600190811b01905550565b5f60208284031215611c10575f5ffd5b81516117038161174a565b634e487b7160e01b5f52602160045260245ffd5b8082018082111561043857634e487b7160e01b5f52601160045260245ffdfe52c63247e1f47db19d5ce0460030c497f067ca4cebf71ba98eeadabe20bace00a16a46d94261c7517cc8ff89f61c0ce93598e3c849801011dee649a6a557d100154c00819833dac601ee5ddded6fda79d9d8b506b911b3dbd54cdb95fe6c368602dd7bc7dec4dceedda775e58dd541e08a116c6c53815c0bd028192f7b626800a2646970667358221220d2d6c5a048b3be5a18c8accd4e3ac83eb9837c90da2b89329d5a90e1d291ba5264736f6c634300081c0033",
  "linkReferences": {},
  "deployedLinkReferences": {},
  "immutableReferences": {},
  "inputSourceName": "project/contracts/Token.sol",
  "buildInfoId": "solc-0_8_28-bc123161b9220d2f4a079ab7dc35866e6436c5a4"
}